:1000000090C800201177000005FE01004D77000028
:100010004D7700004D7700004D7700000000000094
:1000200000000000000000000000000095740000C7
:100030004D770000000000004D74000055EC0100F9
:10004000D1760000FD920100D1760000D17600004B
:10005000D1760000D1760000D1760000D176000084
:10006000D1760000D1760000D1760000D176000074
:10007000D1760000D1760000D1760000D176000064
:10008000D1760000D1760000D1760000D176000054
:10009000D1760000D1760000D1760000D176000044
:1000A000D1760000D1760000D1760000D176000034
:1000B000D1760000D1760000D1760000D176000024
:1000C000D1760000D1760000D1760000D176000014
:1000D000D1760000D1760000D1760000D176000004
:1000E000D1760000D1760000D1760000D1760000F4
:1000F000D1760000D1760000D1760000D1760000E4
:1001000081F0004102E000BF83F0004330B54FEAC8
:1001100041044FEA430594EA050F08BF90EA020F35
:100120001FBF54EA000C55EA020C7FEA645C7FEAC8
:10013000655C00F0E2804FEA5454D4EB5555B8BFEB
:100140006D420CDD2C4480EA020281EA030382EA5C
:10015000000083EA010180EA020281EA0303362DEE
:1001600088BF30BD11F0004F4FEA01314FF4801CC1
:100170004CEA113102D0404261EB410113F0004FD3
:100180004FEA03334CEA133302D0524263EB43038A
:1001900094EA050F00F0A780A4F10104D5F1200E28
:1001A0000DDB02FA0EFC22FA05F2801841F1000183
:1001B00003FA0EF2801843FA05F359410EE0A5F157
:1001C00020050EF1200E012A03FA0EFC28BF4CF088
:1001D000020C43FA05F3C01851EBE37101F000453E
:1001E00007D54FF0000EDCF1000C7EEB00006EEB4B
:1001F0000101B1F5801F1BD3B1F5001F0CD34908D5
:100200005FEA30004FEA3C0C04F101044FEA44522B
:1002100012F5800F80F09A80BCF1004F08BF5FEAB2
:10022000500C50F1000041EB045141EA050130BD92
:100230005FEA4C0C404141EB0101013C28BFB1F5A4
:10024000801FE9D291F0000F04BF01460020B1FAEF
:1002500081F308BF2033A3F10B03B3F120020CDAC2
:100260000C3208DD02F1140CC2F10C0201FA0CF0A0
:1002700021FA02F10CE002F11402D8BFC2F1200C05
:1002800001FA02F120FA0CFCDCBF41EA0C019040BB
:10029000E41AA2BF01EB0451294330BD6FEA040404
:1002A0001F3C1CDA0C340EDC04F11404C4F12002EF
:1002B00020FA04F001FA02F340EA030021FA04F301
:1002C00045EA030130BDC4F10C04C4F1200220FA58
:1002D00002F001FA04F340EA0300294630BD21FA96
:1002E00004F0294630BD94F0000F83F4801306BF5C
:1002F00081F480110134013D4EE77FEA645C18BF50
:100300007FEA655C29D094EA050F08BF90EA020FE6
:1003100005D054EA000C04BF1946104630BD91EADE
:10032000030F1EBF0021002030BD5FEA545C05D1E1
:100330004000494128BF41F0004130BD14F5800420
:100340003CBF01F5801130BD01F0004545F0FE4194
:1003500041F470014FF0000030BD7FEA645C1ABFC9
:10036000194610467FEA655C1CBF0B46024650EA00
:10037000013406BF52EA033591EA030F41F400212C
:1003800030BD00BF90F0000F04BF0021704730B5B2
:100390004FF4806404F132044FF000054FF0000187
:1003A00050E700BF90F0000F04BF0021704730B548
:1003B0004FF4806404F1320410F0004548BF40421D
:1003C0004FF000013EE700BF42004FEAE2014FEA72
:1003D00031014FEA02701FBF12F07F4393F07F4F4D
:1003E00081F06051704732F07F4208BF704793F050
:1003F0007F4F04BF41F40021704730B54FF4607463
:1004000001F0004521F000411CE700BF50EA010265
:1004100008BF704730B54FF000050AE050EA01020E
:1004200008BF704730B511F0004502D5404261EB7E
:1004300041014FF4806404F132045FEA915C3FF4BF
:10044000D8AE4FF003025FEADC0C18BF03325FEA5C
:10045000DC0C18BF033202EBDC02C2F1200300FA0D
:1004600003FC20FA02F001FA03FE40EA0E0021FA32
:1004700002F11444BDE600BF70B54FF0FF0C4CF420
:10048000E06C1CEA11541DBF1CEA135594EA0C0FD2
:1004900095EA0C0F00F0DEF82C4481EA030621EA0D
:1004A0004C5123EA4C5350EA013518BF52EA033548
:1004B00041F4801143F4801338D0A0FB02CE4FF0FA
:1004C0000005E1FB02E506F00042E0FB03E54FF02A
:1004D0000006E1FB03569CF0000F18BF4EF0010E22
:1004E000A4F1FF04B6F5007F64F5407404D25FEA1E
:1004F0004E0E6D4146EB060642EAC62141EA5551D1
:100500004FEAC52040EA5E504FEACE2EB4F1FD0C12
:1005100088BFBCF5E06F1ED8BEF1004F08BF5FEA90
:10052000500E50F1000041EB045170BD06F0004642
:1005300046EA010140EA020081EA0301B4EB5C04EF
:10054000C2BFD4EB0C0541EA045170BD41F48011E7
:100550004FF0000E013C00F3AB8014F1360FDEBF0C
:10056000002001F0004170BDC4F10004203C35DAE8
:100570000C341BDC04F11404C4F1200500FA05F36B
:1005800020FA04F001FA05F240EA020001F000420C
:1005900021F0004110EBD37021FA04F642EB060182
:1005A0005EEA430E08BF20EAD37070BDC4F10C04AC
:1005B000C4F1200500FA04F320FA05F001FA04F270
:1005C00040EA020001F0004110EBD37041F100015C
:1005D0005EEA430E08BF20EAD37070BDC4F1200567
:1005E00000FA05F24EEA020E20FA04F301FA05F2CF
:1005F00043EA020321FA04F001F0004121FA04F277
:1006000020EA020000EBD3705EEA430E08BF20EA46
:10061000D37070BD94F0000F0FD101F00046400080
:1006200041EB010111F4801F08BF013CF7D041EA02
:10063000060195F0000F18BF704703F00046520006
:1006400043EB030313F4801F08BF013DF7D043EAD7
:100650000603704794EA0C0F0CEA135518BF95EA8D
:100660000C0F0CD050EA410618BF52EA4306D1D114
:1006700081EA030101F000414FF0000070BD50EA33
:10068000410606BF1046194652EA430619D094EABD
:100690000C0F02D150EA013613D195EA0C0F05D1A7
:1006A00052EA03361CBF104619460AD181EA0301FB
:1006B00001F0004141F0FE4141F470014FF00000B3
:1006C00070BD41F0FE4141F4780170BD70B54FF04E
:1006D000FF0C4CF4E06C1CEA11541DBF1CEA1355CE
:1006E00094EA0C0F95EA0C0F00F0A7F8A4EB0504B0
:1006F00081EA030E52EA03354FEA013100F08880A7
:100700004FEA03334FF0805545EA131343EA12636F
:100710004FEA022245EA111545EA10654FEA002624
:100720000EF000419D4208BF964244F1FD0404F5DD
:10073000407402D25B084FEA3202B61A65EB030539
:100740005B084FEA32024FF480104FF4002CB6EBF6
:10075000020E75EB030E22BFB61A754640EA0C0076
:100760005B084FEA3202B6EB020E75EB030E22BFB6
:10077000B61A754640EA5C005B084FEA3202B6EBF7
:10078000020E75EB030E22BFB61A754640EA9C00B6
:100790005B084FEA3202B6EB020E75EB030E22BF86
:1007A000B61A754640EADC0055EA060E18D04FEA44
:1007B000051545EA16754FEA06164FEAC30343EAE4
:1007C00052734FEAC2025FEA1C1CC0D111F4801FB1
:1007D0000BD141EA00014FF000004FF0004CB6E7AA
:1007E00011F4801F04BF01430020B4F1FD0C88BF49
:1007F000BCF5E06F3FF6AFAEB5EB030C04BFB6EB54
:10080000020C5FEA500C50F1000041EB045170BD46
:100810000EF0004E4EEA113114EB5C04C2BFD4EB73
:100820000C0541EA045170BD41F480114FF0000EF7
:10083000013C90E645EA060E8DE60CEA135594EA73
:100840000C0F08BF95EA0C0F3FF43BAF94EA0C0F76
:100850000AD150EA01347FF434AF95EA0C0F7FF4EB
:1008600025AF104619462CE795EA0C0F06D152EA3F
:1008700003353FF4FDAE1046194622E750EA410623
:1008800018BF52EA43067FF4C5AE50EA41047FF434
:100890000DAF52EA43057FF4EBAE12E74FF0FF3C99
:1008A00006E000BF4FF0010C02E000BF4FF0010C6A
:1008B0004DF804CD4FEA410C7FEA6C5C4FEA430CE3
:1008C00018BF7FEA6C5C1BD001B050EA410C0CBF32
:1008D00052EA430C91EA030F02BF90EA020F002094
:1008E000704710F1000F91EA030F58BF994208BFFB
:1008F00090422CBFD8176FEAE37040F001007047B8
:100900004FEA410C7FEA6C5C02D150EA013C07D10E
:100910004FEA430C7FEA6C5CD6D152EA033CD3D059
:100920005DF8040B704700BF8446104662468C4653
:100930001946634600E000BF01B5FFF7B7FF002886
:1009400048BF10F1000F01BD4DF808EDFFF7F4FFAF
:100950000CBF012000205DF808FB00BF4DF808ED3A
:10096000FFF7EAFF34BF012000205DF808FB00BF5D
:100970004DF808EDFFF7E0FF94BF012000205DF87F
:1009800008FB00BF4DF808EDFFF7CEFF94BF012034
:1009900000205DF808FB00BF4DF808EDFFF7C4FF2D
:1009A00034BF012000205DF808FB00BF4FEA410280
:1009B00012F5001215D211D56FF47873B3EB6252B1
:1009C00012D94FEAC12343F0004343EA505311F0D8
:1009D000004F23FA02F018BF404270474FF000006A
:1009E000704750EA013005D111F0004008BF6FF0A8
:1009F000004070474FF00000704700BF4A0011D21E
:100A000012F5001211D20DD56FF47873B3EB625268
:100A10000ED44FEAC12343F0004343EA505323FA74
:100A200002F070474FF00000704750EA013002D1E9
:100A30004FF0FF3070474FF00000704753B94AB98C
:100A4000002908BF00281CBF4FF0FF314FF0FF30D6
:100A500000F06EB9ADF1080C6DE904CE00F006F8B7
:100A6000DDF804E0DDE9022304B070472DE9F0472A
:100A7000089D0E4604468C46002B40F081808A4239
:100A8000174645D9B2FA82F24AB1C2F1200106FAFC
:100A900002F320FA01F1974041EA030C94404FEA37
:100AA000174E230CBCFBFEF6B9B20EFB16CC43EA84
:100AB0000C4306FB01F0984209D9FB1806F1FF3CF4
:100AC00080F01581984240F21281023E3B441B1A8D
:100AD000A4B2B3FBFEF00EFB103344EA034400FB68
:100AE00001F1A14209D93C1900F1FF3380F00181E5
:100AF000A14240F2FE8002383C44641A40EA0640BB
:100B000000211DB1D4400023C5E90043BDE8F087B2
:100B100002B9FFDEB2FA82F2002A4FD1CB1B4FEAB4
:100B2000174E1FFA87F80121B3FBFEFC260C0EFBC3
:100B30001C3346EA034608FB0CF3B34207D9BE193F
:100B40000CF1FF3002D2B34200F2EB808446F61A79
:100B5000A3B2B6FBFEF00EFB106643EA064408FBA8
:100B600000F8A04507D93C1900F1FF3302D2A04597
:100B700000F2D2801846A4EB080440EA0C40C0E71B
:100B80008B4208D9002D00F0AF800021C5E9000696
:100B90000846BDE8F087B3FA83F1002949D1B34292
:100BA00002D3824200F2BB80841A66EB0303012069
:100BB0009C46002DAAD0C5E9004CA7E7C2F120034E
:100BC0009740D8409140DE404FEA174E08434FEA25
:100BD000104CB6FBFEF11FFA87F80EFB11664CEACB
:100BE000064601FB08F3B34204FA02F409D9BE1920
:100BF00001F1FF3C80F08E80B34240F28B800239DD
:100C00003E44F31A86B2B3FBFEF00EFB103346EA05
:100C1000034600FB08F3B34207D9BE1900F1FF3CBD
:100C200074D2B34272D902383E44F31A40EA014109
:100C30007AE7C1F1200703FA01F422FA07F31C4313
:100C400020FA07F906FA01F34FEA144CFE4049EA8C
:100C500003094FEA1943B6FBFCFE1FFA84F80CFBAC
:100C60001E6643EA06460EFB08FAB24502FA01F296
:100C700000FA01F308D9A6190EF1FF3048D2B245A7
:100C800046D9AEF1020E2644A6EB0A061FFA89F9F0
:100C9000B6FBFCF00CFB106649EA064600FB08F8C0
:100CA000B04507D9A61900F1FF3C2DD2B0452BD98C
:100CB0000238264440EA0E40A6EB0806A0FB028953
:100CC0004E45C446CE4618D315D075B3B3EB0C02CF
:100CD00066EB0E0606FA07F722FA01F3CE401F4331
:100CE000C5E90076002111E7294628460EE7664649
:100CF000EDE6184601E74345E7D2B8EB020C69EB95
:100D000004040138A646E0E76046D3E760468CE776
:100D10008646B9E7614674E702383C442BE708464B
:100D200047E7ACF1020C3E4411E72946EEE600BF6E
:100D3000704700BF00000000F0B5454DD5F8043104
:100D4000996811F0010189B021D103AA40F603404E
:100D500007F0DAFF0446002876D1039B9B681B78D6
:100D600093B93C4A136005F1980318461FF0B2F995
:100D7000BFF35B8F00F0050053E8002F43E800014C
:100D80000029F9D1BFF35B8F03981AF0B7FE03AACD
:100D9000002141F2030007F0B7FF0446002853D1B9
:100DA000039B2D489968082201311FF072F80398BF
:100DB0001AF0A4FE214603AA41F2010007F0A4FFA5
:100DC0000446002840D1039883685A7885F8382073
:100DD000D9789A7842EA01226A871A7985F8392007
:100DE000197ADA7942EA0122AA875A799B7942EA8A
:100DF0000323EB871AF082FE214603AA41F2020088
:100E000007F082FF0446F8B9039B14489968402212
:100E100001311FF03EF895F86A30039843F006035D
:100E200085F86A301AF06AFE95F844305B061DD4E6
:100E30000B4B0C490C48C91AC908890141F0010142
:100E40001DF055FB6FF01204204609B0F0BD00BF45
:100E500000000020E81E0020400000204800002084
:100E60000C370200CC370200095F0200214603AABA
:100E700042F2030007F048FF04460028E4D1039B38
:100E8000A5489968082201311FF003F803981AF069
:100E900035FE214603AA42F2020007F035FF044660
:100EA0000028D1D1039B9B68B3F80120A5F8B0209E
:100EB00091B221B1DA789948114622F0A8F8039846
:100EC0001AF01CFE95F8446016F0200600F0FF8032
:100ED00095F864301F0711D503AA002142F21C00C7
:100EE00007F012FF04460028AED10398836853F838
:100EF000012F5B68C5E92A231AF000FE95F8A0309F
:100F00009E0624D502A90DF1060007F075FF0446E0
:100F1000002899D1042142F2240007F099FD0646E9
:100F2000002800F0DB800421083021F043FBBDF8ED
:100F300006300380BDF8083043802246314642F235
:100F4000240007F0E1FE044600287FF47DAF95F809
:100F5000A0305C0610D503AA002142F22A0007F057
:100F6000D3FE044600287FF46FAF039883685B7854
:100F700085F8CC301AF0C2FD082142F2010007F0DA
:100F800067FD0446002800F0A9800821084421F0EC
:100F900011FB95F8A01011F0400F024640F2022319
:100FA00008BF032388074CBF43F02C0043F00C001C
:100FB00095F8A1308F0648BF40F0400013F0090FAC
:100FC00095F86A3018BF40F4006003F00603CE07BE
:100FD00048BF40F01000062B08BF40F4C07000214D
:100FE0001FF0BBF82146002242F2010007F08CFE00
:100FF000044600287FF428AF95F8443098061ED4A4
:10100000B5F8B010D9B903AA41F2050007F07CFE8B
:10101000044600287FF418AFB5F8B03063B9039BDD
:101020009B685A78997842EA0122A5F8B0209A88FC
:101030003A48114621F0EBFF03981AF05FFD0821B2
:1010400040F6014007F004FD0446002846D0082180
:10105000084421F0AFFA95F8A030D907024652D5DE
:101060002BA1D1E900011FF078F82146002240F6BB
:10107000014007F049FE044600287FF4E5AE014632
:1010800002AA4FF6014007F03FFE254E254BF61A07
:10109000F608B60100284DD0234846F002011DF0A5
:1010A00026FAEB79002B7FF4CFAE08F039FFEB790D
:1010B000002B7FF4C9AE08F0DDFF0446002800F0E5
:1010C000A6801A4846F001011DF011FABCE6022183
:1010D00040F66D4007F0BCFC044610B96FF03604D2
:1010E000B2E60221083021F065FA01230370467050
:1010F0002146324640F66D4007F006FE04460028C1
:101100003FF4E6AEA0E60A484FF00051ABE700BF5F
:101110009088000200800020A0000020B400002081
:10112000CC3702000C3702002D5F02000160020084
:1011300010880002029B3B489F68B7F80120032AF1
:1011400096BF3949394951F8221046F003031DF082
:10115000EFF9B7F80110B7F80320022946F00303AE
:101160002ED1032A2CD8324951F8221031481DF0D3
:10117000DFF97A793048032A96BF30492B4951F874
:101180002210CDE90312BA790592B7F8072006922A
:10119000D7F80920079246F00303052203A91DF0A2
:1011A000FCF902981AF0AAFC02AA00214FF60240AC
:1011B00007F0AAFD074628B1214846F002016EE774
:1011C0001A49D3E7029B1F489968022201311EF099
:1011D00060FE02981AF092FC95F889305B077FF563
:1011E00060AF02AA39464FF6034007F08DFD18B1F3
:1011F000154846F0020152E7029B14489968012203
:1012000011441EF046FE02981AF078FC49E7104897
:1012100007F01CFE044600283FF416AE0D4846F0C9
:10122000010151E7515F02008C3C02002B58020083
:10123000543C02006A5F0200825F0200BC3C020074
:10124000AF5F020089000020D85F02008800002004
:101250000100002020600200F8B5194E9DF81840EA
:1012600096F8485015F0010721D196F832C0DFF802
:1012700054E0A6F84210E40004F018040CF0670CE7
:1012800044EAC01463F34205A2FB0E0144EA0C04D5
:10129000912303FB021186F8485007A3D3E90023EA
:1012A00086F83240FFF7CAFB70643846F8BD0C2759
:1012B0003846F8BDAFF300808D49FD1A07000000E5
:1012C00068320020002AE784F8B59DF81840104ED7
:1012D0000546E400807DEA8404F01804A3FB066759
:1012E00000F06700912244EAC111014302FB037739
:1012F000A97505A3D3E9002330463946FFF79EFBC5
:10130000A862F8BDAFF300808D49FD1A0700000008
:10131000002AE784000000002DE9F04390F8323005
:10132000044600F1350190F8480003F0F903C0F3DA
:1013300040008DB060F3861384F8323002230B93A3
:1013400010F08EFBB4F8426094F820303C48E46121
:101350000025A6FB000165F30003912202FB0611A4
:10136000C4E9055584F8203033A3D3E90023FFF7FF
:1013700065FB636C656006460933A6F13102934252
:101380004FF0310132BFE360E2606564A560216027
:1013900010F064FB2B4D0694B4F842802A49DFF824
:1013A000B0C02A4A0746651B2548AD08A1FB053594
:1013B000A8FB0001912303FB0811E36804930DF1DE
:1013C0002C08CDF81CC005924FF00A0C1AA3D3E9E3
:1013D0000023CDF80CC0CDF82080FFF72FFB10467E
:1013E00019464FF47A720023FFF728FB6D08023587
:1013F0000021EDB22A46CDE901603B460091084646
:10140000032110F079FA414613F0AAF8054660B9B5
:1014100094F8483043F0010384F84830022017F074
:10142000EBF928460DB0BDE8F0830C200DB0BDE807
:10143000F08300BFAFF300808D49FD1A0700000064
:10144000002AE78468320020BD86F21A5548010060
:1014500055450100000000002DE9F04F868D4FF644
:10146000FF739E428DB004468A46914600F0158176
:1014700005F0A0FDB54BB64AB64FB74DDFF810B337
:10148000A0FB0301C30B43EA4143B4493868A2FB04
:1014900003230A689B0C904245F8263000F0E88050
:1014A000DBF800500860032D25D9AD4FAD4ACBF8CD
:1014B000006052F82530013342F8253005F07AFDFE
:1014C00094F8C05094F8BF3047F8360007EBC602D6
:1014D00000219D42516055D05B1B03F00303022B9A
:1014E00062D094F8052194F804319A4277D1002013
:1014F0000DB0BDE8F08F9C4B994F944903EBC503A9
:1015000007EBC50E1A68DEF800C05868DEF8043034
:10151000B2EB0C0260EB0300A2FB0123CDE90A232E
:1015200001FB00330B93DDE90A01904A4FEAD03802
:1015300048EA41489045B9D9854BA3FB08384FEAA2
:1015400098484046FEF71EFF0B468949024651F86F
:101550002500CDE90A23FEF715FF864B0022FEF792
:101560008BFF02460B46DDE90A01FFF701FA00286E
:101570009CD0814951F82530002B40F0F48341F88C
:10158000258093E794F82A2112F00107A9D194F855
:10159000DD1094F8DC00884200F0F683AB1E0122D7
:1015A00084F8C03084F8C12094F8703194F8712127
:1015B0009A4206D094F8722102F00601042900F044
:1015C000288494F8C1506B1E052B00F2BD83DFE820
:1015D00013F095016501E100BB037F00FF0267483E
:1015E0000EF026FD58B394F8043184F805310379E0
:1015F000022243F0030342710371C271D4F88831AF
:1016000094F80621027233B394F82A21910722D468
:1016100094F88321D2071ED4D4F89421934204BFB6
:101620001A68C4F89421D4F88C21C2B91A680260EF
:1016300018600368C4E963000BB9C4F89801B4F8F2
:10164000B00000287FF453AFB4F8AA30012B33D98F
:10165000A4F8B0304BE7D4F88C21002A32D0D4F86B
:1016600090311A6802601860C4F890010368E3E7DB
:1016700005F0A0FCDBF800503B4B414943F8350036
:1016800003EBC503002051F8252058603B68013268
:10169000013341F825203B6005E73A4A3A493B4887
:1016A00040F271331CF063FC404080F311884FF02E
:1016B000030002DFA68DDBE60133A4F8B0300DB0E5
:1016C000BDE8F08F0360C4E96200C4F89001B3E79D
:1016D0002A480EF0ADFC00283FF403AF94F8BF3069
:1016E00084F8C030012302794371D4F8883142F084
:1016F000030212210271C171002B00F0068694F8DA
:101700002A21920700F1018694F88321D70700F17E
:10171000FC85D4F89421934204BF1A68C4F894213C
:10172000D4F88C21002A01F05583D4F890311A683E
:1017300002601860C4F890010368002B00F0D087A5
:10174000B4F8AE30A4F8B030CBE600BF00CA9A3B84
:1017500083DE1B438C040020CC320020E076002086
:10176000B81A002098690020D81A00203F420F00C4
:10177000005300200000F43FEC52002008740020C9
:10178000DC52002058440200A4450200144002002C
:10179000E476002094F8C43013F0030600F0B2841D
:1017A00094F93D30002BBFF69CAE012E7FF499AE2C
:1017B00051480EF03DFC054600283FF492AE0379F7
:1017C0000D2243F00303042700F108060371427160
:1017D000C7710C21304617F0AFFF3146082204F1E3
:1017E000CE001EF056FB3A4605F1100104F18000D0
:1017F0001EF04FFBD4F88831002B01F0DC8094F808
:101800002A21970701F1D78094F88321D60701F1A7
:10181000D280D4F89421934204BF1A68C4F894216A
:10182000D4F88C21002A01F02183D4F890311A6871
:101830002A601D60C4F890512B68002B01F0B28221
:1018400012F040FE054600283FF44BAE2B7FA28DE0
:10185000EA8043F003030226172103222B776977DE
:10186000EA7704F22D1108222E7105F120001EF0F6
:1018700010FB94F82B3185F8283094F82C3185F83A
:1018800029302868294612F0E9FD12F0F1FD94F89C
:10189000C43066F3010384F8C43022E6E38E618E1F
:1018A00094F8C4200B449944D0071FFA89F900F139
:1018B0006F83B4F8CA30A9EB030919F4004F7FF421
:1018C00010AE94F8BF3084F8C03004F1380505221A
:1018D00004F1C50128461EF0DCFA284605210EF069
:1018E00075FD94F83D30012260F3050384F83D3026
:1018F00084F89C21F5E500BF08740020A64E3368EB
:10190000002B00F05A84E58E628E94F8DE30154488
:101910004D4413F00303ADB240F0CC82B4F8C47070
:10192000EA1B1FFA82F812043FF5DBAD94F8481168
:1019300094F8492194F8DC0084F8DD008A4294F898
:10194000BF0084F8C00009D094F84A2102F00702D1
:10195000052A04BF84F84911A4F8B03033689C42CA
:1019600004BF00233360D4F8D860002E00F0F78461
:101970003068002800F0F384B4F8E030E28D41686C
:10198000C4F8D8109342B4F8E210B4F8E4C000F000
:10199000DD85A28DF2804FF00B0E0022F38331849F
:1019A000A6F822C086F804E03277314612F056FDE0
:1019B00012F05EFDE38DB4F8E06013FB08F39BB218
:1019C000B3FBF6F116FB01F292B293421FFA81F8D3
:1019D00080F0A784D31A714840F2E24202FB03F37D
:1019E000A3FB00016AA3D3E90023FFF727F820F047
:1019F0007F408244638E7D1B994494F93D30A84416
:101A0000C844002B40F2E249A4F8328009FB06F8F2
:101A1000C0F2EB85614FD4F8E8005DA3D3E9002361
:101A2000A0FB0701FFF70AF88446B4F8580109FB48
:101A300000F057A3D3E90023A0FB07012CF07F4758
:101A4000FEF7FCFF5649574B574A096819600023B7
:101A5000013782441370A4F85831B4F8E420B4F884
:101A6000E200524BE68542F2107606FB02825049B4
:101A700020864344861D013AB3FBF8F3B2FBF8F22B
:101A8000A4F8AA209AB2B2424144A4F8B620B1FB0D
:101A9000F8F1A4F8AE1002DD121A063A92B294F8E8
:101AA000DE30A4F8B2205D0744BF0023A4F8AC30B8
:101AB0000221012019F0A0FD00220221064601208A
:101AC0000EF05AFB3B494FF4D07220460EF0E6FA76
:101AD000C21C5FFA82FB384B00945A460121002059
:101AE0000FF076FF30F002030CD0344A3449354809
:101AF00040F636531CF03BFA404080F311884FF01B
:101B0000030002DF2549E3682F4ADFF8C0C00493D1
:101B1000A8FB01890025079240461DA3D3E90023B5
:101B20004946CDF814C0089406940395FEF786FF45
:101B3000104619464FF47A720023FEF77FFF14A374
:101B4000D3E900230446494640460294FEF776FF57
:101B500053460190009728465A4601210FF0CCFECB
:101B600030F002030CD0154A154916484FF455635E
:101B70001CF0FDF9404080F311884FF0030002DFB4
:101B8000002E40F0FC846FF04700B1E4AFF300801A
:101B90008D49FD1A070000008069002000CA9A3BA9
:101BA000E8050020EC0500203E9C00207FC3C90111
:101BB000FF59620200630020A14E01005844020058
:101BC000D445020014400200494E0100217D01006D
:101BD000E38E628E94F8C45013449944EE071FFAC2
:101BE00089F9AB4600F13282B4F8C630A9EB03099B
:101BF00019F4004F7FF475AC94F8492094F8BE3086
:101C000094F848A094F8BF10B4F84680B4F8BC60CB
:101C100084F8C01002F00702DF070A920AF0070AF0
:101C2000D4F8F42040F19083100540F18D8344F204
:101C300090294E4528BF4E46B6F5A47F38BF4FF4D5
:101C4000A47615F01C0F40F0A384B4F8447015F08E
:101C5000E00F0CD094F8493094F84200690961F320
:101C6000020384F849304A4612F0B0FF804694F8E7
:101C7000843194F84820D4F8D850C3F3C00363F3F8
:101C8000C30284F84820002D00F09D8428680028B5
:101C900000F0998494F8482094F849304168C4F8D9
:101CA000D8101BF0020FC2F3020CC3F3020102F0C2
:101CB000070203F0070302D1924500F09F86A38D2F
:101CC000EB800F220023A97785F81DC02A712B779E
:101CD000294612F0C3FBD4F8D850002D00F0F08450
:101CE0002868002800F0EC84B4F844304268C4F856
:101CF000D820BB4208D39E4206D3B4F846304345B1
:101D000002D3994580F08F86A4F84470A4F84680E9
:101D10002B7FA28DEA8043F003030221092229715F
:101D20002B776A77B4F84230B4F840202B8415231F
:101D3000AA84EB772946A5F82280EF8412F08EFB67
:101D400012F096FBFFF7CDBBB94ABA49BA4840F248
:101D50001A431CF00CF9404080F311884FF0030047
:101D600002DFFFF7BEBBB54AB5481268C2F1640C8A
:101D700003FB0CF3323308FB0233A0FB03235B09A4
:101D800041F82530FFF792BB94F8F10094F8F06029
:101D9000B04255D194F8FD0094F8FC60B04200F0D8
:101DA000FD82801BC1077FF59CAB94F8FE30DA07FB
:101DB00040F13B879D0740F1298712F083FB0146E4
:101DC000002871D094F8FC3084F8FD30037FA28D98
:101DD000C28043F003030B77022006220C23087114
:101DE0004A77CB7794F8FF00B4F80231B4F80021B9
:101DF000A1F8212081F82000A1F82330086812F012
:101E00002DFB12F035FB94F8BF3094F8C050FFF76B
:101E100063BB02F00701062901F26D8101A050F8B1
:101E200021F000BF41220000C3150000C3150000CF
:101E3000C3150000C1210000C1210000C31500002E
:101E4000801BC6077FF54DAB94F8BE1011F001055D
:101E500000F0DD8312F036FB054628B394F8F0302D
:101E600084F8F130037FA28DC28043F0030309227E
:101E7000022039462B7728716A77EA7705F120002E
:101E800008221EF031F8D4F8F83085F82030C3F37A
:101E900007221B0C85F8212085F822302946086886
:101EA00012F0DCFA12F0E4FA94F8BF3094F8C05063
:101EB000FFF712BB012012F0E1FA074600283FF4B9
:101EC00010AB60480EF0B4F8064600283FF409ABAA
:101ED00012F0F8FA238E3A6894F8DE002B440633A9
:101EE00099B2D4F8D83053603279A4F8C4106FF3A3
:101EF00001000C2384F8DE00C4F8D87042F003021D
:101F00007371D4F8E830D4F888014F4D3271002253
:101F1000F271A5FB032394F8EC50B4F8E02035727D
:101F2000C3F38F23B4F8E250A6F80B20B4F8E420F2
:101F3000A6F80F20A6F80D50A6F81110A6F8093043
:101F4000002800F0358394F82A319D0700F1308392
:101F500094F88331D90700F12B83D4F89431984257
:101F600004BF0368C4F89431D4F88C31002B00F01E
:101F70004787D4F890311A6832601E60C4F89061C7
:101F8000306800287FF4ADAAC4F89861FFF7A9BAB9
:101F90002C480EF04DF8054600283FF4A2AA238EE7
:101FA000027994F8C410994409F10603A4F8CA30E0
:101FB0006FF30001012342F00302082084F8C410EB
:101FC0002A716871EB71052204F1C50128181DF012
:101FD00060FFD4F88831B4F8CA20A5F80D20002B92
:101FE00000F0A28394F82A21910700F19D8394F8D0
:101FF0008321D20700F19883D4F89421934204BF3F
:102000001A68C4F89421D4F88C21002A00F01E87A5
:10201000D4F890311A682A601D60C4F890512B687A
:10202000002B7FF45EAAC4F89851FFF75ABA00BF9C
:10203000584402008440020014400200940400202E
:102040001F85EB51087400205917B7D1022012F0F8
:1020500015FA054600283FF444AACB480DF0E8FFE6
:10206000074600283FF43DAA94F8C4306FF30003FC
:10207000C3F38206C3F34212164384F8C430DBB2C2
:1020800040F0A58594F8BF20A4F8C660980784F8AE
:10209000C02000F150863346314605227A713E72E7
:1020A0003A797B72D4F88831798142F003021821A1
:1020B0003A71F971002B00F0178394F82A219107E7
:1020C00000F1128394F88321D20700F10D83D4F834
:1020D0009421934204BF1A68C4F89421D4F88C2147
:1020E000002A00F09586D4F890311A683A601F6093
:1020F000C4F890713B68002B7FF4F3A9C4F8987181
:10210000FFF7EFB9A0480DF093FF074600283FF412
:10211000E8A994F93D30002B00F1040880F2EB832C
:1021200094F86230190700F1C58594F8C560002E57
:1021300000F08284037994F8BE2043F00303D207B1
:10214000037140F1E485D4F8F4305B0740F1DF859A
:10215000112203234672C27103727D71D4F8883153
:10216000002284F8C520002B00F0B08494F82A21C6
:10217000960700F1AB8494F88321D50700F1A6847B
:10218000D4F89421934204BF1A68C4F89421D4F877
:102190008C21002A00F09B86D4F890311A683A60AE
:1021A0001F60C4F890713B68002B00F00C8594F818
:1021B000BF3084F8C030FFF794B93460FFF7A3BB99
:1021C00002F00702B4F874C1B4F87811B4F876716B
:1021D000B4F87A61A4F842C0042AA4F8461000F0CA
:1021E000958494F87231062262F3020384F8723106
:1021F000D4F8D850002D00F075842868002800F02D
:1022000071842B7F4268B4F82CE0C4F8D82043F0E6
:10221000030302222B774FF009081523A5F806E0E7
:10222000A5F820C069842A71EB772946AF84EE8433
:1022300085F81D8012F012F912F01AF9FFF7C1B9F2
:1022400051480DF0F5FE00283FF4BBA994F8722127
:10225000B4F87611B4F87A31A4F8BA100125A4F8CC
:10226000BC3065F30202092584F8722102794571B8
:1022700094F8BE50818142F003020021D4F8F4703A
:10228000027114266FF004024172E907C6710272EE
:1022900040F126833A0540F1238344F29022934291
:1022A00028BF1346B3F5A47F38BF4FF4A473D4F806
:1022B00088114281C381002900F0418294F82A31BB
:1022C0009F0700F13C8294F88331DE0700F13782EA
:1022D000D4F89431994204BF0B68C4F89431D4F80F
:1022E0008C31002B00F0BA85D4F890311A68026066
:1022F0001860C4F890010168002900F00E85B4F858
:10230000AE30A4F8B030FFF75CB9D4F88C21002AC5
:102310007FF40BAA0360C4E96200C4F89001FFF7E0
:102320000CBA06FB113340F2E24218489BB202FBA2
:1023300003F3A3FB000112A3D3E90023FEF77EFB06
:10234000AAEB000AFFF756BB40F648094E4528BFE6
:102350004E46B6F5A47F38BF4FF4A47671E40C4A1C
:102360000C490D4840F68F431BF001FE404080F3BE
:1023700011884FF0030002DF3068FFF7FDBA00BF9D
:102380008D49FD1A070000000874002000CA9A3B1E
:1023900058440200C04502001440020094F849610C
:1023A00094F84801864200F0D581D54E3068002867
:1023B00000F0E18484427FF494A894F84A0100F08C
:1023C0000700052800F2918601A757F820F000BF0A
:1023D000C724000039240000E9230000D9140000BC
:1023E000D9140000D914000090073FF57AA812F024
:1023F00069F8014600283FF457AD037F94F84A215D
:10240000032060F30202034384F84A21A08D0B7776
:10241000022518230D714B77B4F84C21B4F84E31D6
:10242000C880B4F850010A84B4F852214B840F23B9
:102430008884CA84CB7732E5B248B34AB34B94F868
:102440004B510068106000271F70002D40F046853A
:1024500094F93D30002BC0F26F8594F84A3194F81E
:102460005421C4F8E850052060F30203012084F8E9
:102470004A3184F8EC00002A00F02586B4F84C318B
:10248000B3FBF2F3034413FB02F39BB294F84A212B
:1024900094F8DE00A4F8E030C2F3C0039B0020F003
:1024A000070243F002031343B4F85001B4F8522179
:1024B00084F8DE30013984F8DD10A4F8E200A4F8D5
:1024C000E420FFF70EB89248E58E678E0DF0B0FD60
:1024D000014600283FF4E8AC94F84A21037904202F
:1024E00060F3020284F84A2143F0030318220B71BF
:1024F0004A71B4F84C01EB190022B4F84E51B4F80B
:10250000527108814B44B4F850010A744D8188819E
:10251000B4F85851A1F811300F204FF0FF33C871B3
:102520004B758B75CB750B764B768B76CB760B77A5
:102530004B778B77CF81A1F81350204612F0B0FB78
:10254000B4F8AE303460A4F8B030ADE4228E8A42E4
:102550007FF41FAA40F2E24202FB03FB42F2107238
:10256000B4F8AAE002FB0CB2013AB2FBFBF292B261
:1025700096457FF40EAA03233371FFF716BA0122A2
:10258000104602210DF0F8FD6FF04700FEF7B0BFD6
:1025900094F8483094F84000C5F3820161F30203D7
:1025A00084F84830324612F011FB0746FFF74FBB64
:1025B000D4F88C31002B7FF4DCAC3060C4E9626667
:1025C000C4F89061DDE4534A5349544841F20E2364
:1025D0001BF0CDFC404080F311884FF0030002DF78
:1025E000286894F8C4B0FFF755BB4A4A4C494B4899
:1025F00040F607531BF0BBFC404080F311884FF0BE
:10260000030002DF0027B4F8E060FFF726BA404875
:102610000DF00EFD064600283FF446AC94F8F1306C
:10262000404AC4F8F420013B092284F8F130427199
:1026300094F93D200379002AACBF08220E2243F012
:102640000303C27108220371294610441DF04CFC9B
:10265000D4F8F4303372C3F307221B0C7272B372D6
:10266000D4F88831002B00F0B28194F82A21950724
:1026700000F1AD8194F88321D00700F1A881D4F84E
:102680009421934204BF1A68C4F89421D4F88C2191
:10269000002A00F01484D4F890311A6832601E6069
:1026A000C4F890613368002B00F08083B4F8AE303A
:1026B000A4F8B03094F8C05094F8BF30FEF70CBFC7
:1026C000144A1549154841F23A231BF050FC40408A
:1026D00080F311884FF0030002DF2868FFF704BB86
:1026E000C4F89801FFF72CB8D4F88C21002A7FF4A5
:1026F000FAAC3B60C4E96277C4F89071FBE400BFB8
:1027000080690020E8050020EC0500203E9C0020A8
:102710000874002058440200C04502001440020022
:1027200084400200FF080100D4F88C21002A7FF4C5
:102730006FAC2B60C4E96255C4F8905170E4D4F8D2
:102740008C31002B7FF4D0AD0160C4E96200C4F885
:102750009001D1E594F8700194F87121824200F063
:10276000E98194F8721101F00702062A00F2C08490
:1027700001A656F822F000BF1D280000D914000061
:10278000D9140000D91400009527000095270000F7
:10279000D9140000B4F87431A4F8423001F00703F2
:1027A000B4F87821B4F87671B4F87A61A4F84620C8
:1027B000042B00F07A830B46062262F3020384F8AE
:1027C0007231D4F8D850002D00F0608328680028BA
:1027D00000F05C832B7F4268B4F82CC0C4F8D8208A
:1027E00043F003032B77022209236B772A71B4F895
:1027F0004210B4F846206A841523EB77A5F806C08A
:102800002984AF842946EE8411F028FE11F030FEB1
:1028100094F8BF3094F8C050FEF75EBEC1480DF08A
:1028200007FC00283FF440AB94F87221B4F876110D
:10283000B4F87A31A4F8BA100125A4F8BC3065F3D5
:10284000020284F8722109250279457194F8BE507C
:10285000818142F0030214210271D4F8F420C17185
:102860006FF0040100260172E907467240F1E3822D
:10287000170540F1E08244F29022934228BF1346AC
:10288000B3F5A47F38BF4FF4A473D4F88811428104
:10289000C381002900F0C48294F82A319E0700F118
:1028A000BF8294F88331DD0700F1BA82D4F8943105
:1028B000994204BF0B68C4F89431D4F88C31002BD2
:1028C00000F00584D4F890311A6802601860C4F8EA
:1028D00090010368002B7FF4E9AEC4F89801E5E6A7
:1028E00040F64802934228BF1346B3F5A47F38BF91
:1028F0004FF4A473DBE404F163052B46324604F184
:10290000C60104F2351018F0F1F82946102204F13E
:1029100084001DF0BEFA082204F17C0104F19D0040
:102920001DF0B7FA94F87B0094F89C2094F862307C
:1029300084F8736043F0080366F3000042F001027C
:1029400084F87B0084F8623084F8746084F87560E1
:1029500084F8766084F8776084F8786084F8796029
:1029600084F87A60C4F894604146C4F8986084F8AA
:102970009C20204612F064FBD4F8883193B394F87D
:102980002A2195072ED494F88321D0072AD4D4F88D
:102990009421934204BF1A68C4F89421D4F88C217E
:1029A000002A7FF4F9AB1A683A601F603B68C4E9FB
:1029B0006377FFF7F9BBD4F88C21002A7EF435AF9A
:1029C0002B60C4E96255C4F89051FEF736BFD4F8C5
:1029D0008C21002A7FF45FAE3360C4E96266C4F8DC
:1029E000906160E6D4F88C21002A7FF4D5AB3B607F
:1029F000C4E96277C4F89071FFF7D6BB0A9A9A428D
:102A00007FF45DA903232B71294611F027FDD4F82B
:102A1000D850002D00F081822868002800F07D82C7
:102A20004368C4F8D83003232B71294611F016FDF2
:102A300011F01EFDFEF755BD04F163052B4632462D
:102A400004F1C60104F2351018F050F8294610229E
:102A500004F184001DF01DFA082204F17C0104F148
:102A60009D001DF016FA94F87B2094F89C1094F8C1
:102A7000623084F8736042F0010266F3000143F0B3
:102A80000803012084F87B2084F89C1084F86230CD
:102A900084F8746084F8756084F8766084F87760F0
:102AA00084F8786084F8796084F87A60C4F8946077
:102AB000C4F898603A797871D4F8883142F003020A
:102AC00005213A71F971002B7FF450ABD4F88C21B9
:102AD000002A7FF461AB3B60C4E96277C4F890716F
:102AE000FFF761BB104A1149114841F2DE031BF0A8
:102AF0003EFA404080F311884FF0030002DF28685F
:102B0000B4F842C0B4F84610FFF77BBBB4F87C21A0
:102B1000002A40F04E8184F87131A4F8B020FFF70C
:102B200067BB00BF0874002058440200C045020083
:102B30001440020094F8803194F881219A423EF4C6
:102B4000D0AC94F8822102F00301032900F0438203
:102B500000297EF4C6ACC9480DF06AFA0146002887
:102B60003FF4A2A994F8823194F8842194F8835117
:102B7000012060F30103C3F3820060F30202C3F398
:102B8000421060F30612C5F34005087984F88231DB
:102B900065F3C30284F8842140F00300C3F3820686
:102BA0001622C3F3421303254B720871CA710E72C9
:102BB0004D710022204612F073F8B4F8AE30A4F83C
:102BC000B030FFF771B9C4F89871FFF7F0BA238EEF
:102BD000994409F10603A4F8C63011F073FC2B6880
:102BE000D4F8D8205A60C4F8D85011F06BFC0368B0
:102BF000D4F8D8205A6094F8C430B4F8C610C4F899
:102C0000D800C3F382065B09FFF747BA40F6FA63C0
:102C10009B4A9C499C481BF0AAF9404080F31188CC
:102C20004FF0030002DFFFF73FB994480DF000FAC0
:102C300000283FF439A994F8FD2094F8FE30013AB9
:102C400084F8FD20027943F00103062184F8FE3068
:102C500042F003024171D4F8883102710B216FF008
:102C60000E020C250172427205214FF0FF32C57130
:102C70008172C2720273002B00F0B48094F82A2192
:102C8000970700F1AF8094F88321D60700F1AA805E
:102C9000D4F89421934204BF1A68C4F89421D4F85C
:102CA0008C21002A7FF40EAE1A6802601860C4E915
:102CB00063000EE64146204612F0C2F9D4F888318E
:102CC0007BB394F82A2190072BD494F88321D10761
:102CD00027D4D4F89421934204BF1A68C4F89421ED
:102CE000D4F88C21002A00F07081D4F890311A6851
:102CF0003A601F60C4F890713B68002B7DD094F857
:102D00002A3123F0030384F82A31FFF750BA0D2348
:102D10003E72FB710225FFF720BAC4F89801FFF755
:102D2000EEBAD4F88C21002ADFD13B60C4E9627787
:102D3000C4F89071E0E711F0C5FB0F23A28D2E7748
:102D40002B7194F848302868EA80C3F302036B774C
:102D500094F84930C3F30203AB77294611F07EFBA8
:102D600011F086FB94F8C430B4F8C610C3F38206A1
:102D70005B09FFF792B994F84A3103F00703052B7A
:102D800000F2B38101A050F823F000BFC724000077
:102D900039240000E9230000E3140000E3140000DC
:102DA000E3140000C4F89851FEF74ABDC4F89861D6
:102DB0007CE494F87201B4F87E51A4F876210023E3
:102DC00063F3020084F87201A4F87C31A4F87A510C
:102DD000FFF70EBA1A68026018600368C4E963005E
:102DE000FEF7ABBCD4F88C21002A7FF46BAD0360F6
:102DF000C4E96200C4F890016BE5C4F898717EE7FD
:102E00000368336006603068C4E96366FFF7B9B8E9
:102E10001A683A601F603B68C4E96377FFF76BB9D3
:102E2000D4F88C31002B7FF44DAD0160C4E9620011
:102E3000C4F890014DE540F64802934228BF13467E
:102E4000B3F5A47F38BF4FF4A4731EE51A682A6057
:102E50001D602B68C4E96355FFF7E2B80B68036097
:102E600008600168C4E96300FFF746BA1A682A607F
:102E70001D602B68C4E96355FEF7DFBC08740020B1
:102E8000584402008440020014400200A14AA249B2
:102E9000A24841F2DE031BF06AF8404080F311883B
:102EA0004FF0030002DF286894E4B4F87C21002A84
:102EB00040F0D38084F87101A4F8B02081E41A684E
:102EC00032601E603368C4E96366FFF7ECBB1A68C2
:102ED0003A601F60C4E96377FFF765B990480DF069
:102EE000A7F8014600283EF4DFAF037943F003035F
:102EF0000B71112003220F23C8714A710B7294F8D1
:102F00004B314B723A46204611F0CAFE94F84831D4
:102F1000376084F84931FEF7C7BF7E4A7E497F4853
:102F200041F21D231BF023F8404080F311884FF03D
:102F3000030002DF286873E579480DF079F801464F
:102F400000283EF4B1AF0379182243F00303037164
:102F50004271B4F84C21B4F84E31B4F850010A81F2
:102F6000B4F852214B8110238881CA81CB7194F827
:102F700054310B74B4F85631B4F85801B4F85A21EE
:102F8000A1F81130B4F85C31A1F81300B4F85E0177
:102F9000A1F81520B4F86021A1F81730B4F8623117
:102FA000A1F81D30A1F81900A1F81B2020462A46DF
:102FB00011F076FE94F84831356084F8493194F880
:102FC000C05094F8BF30FEF787BA1A683A601F60A5
:102FD000C4E9637790E684F88131C2F38203120773
:102FE00053D594F88231022262F3840384F882314B
:102FF00094F882315E064FEA53123ED5022262F304
:10300000471384F8823194F8823194F8486094F838
:10301000490094F88321C3F3820106F0070600F00B
:103020000700C2F380028E4208BF00215200B0EBBD
:10303000531F42F001024FEA531308BF002342EA34
:10304000431242EA8102AB1E062184F8C03084F8A4
:10305000C42084F8C110FEF7B4BA00200B4660F318
:103060000203A4F87621B4F87E2184F87231A4F822
:103070007C01A4F87A21FFF7A4BBD0070FD5012269
:1030800062F3471384F88231BDE7DF0710D594F867
:103090008231012262F3840384F88231A8E712F0BE
:1030A000040218BF042262F3471384F88231AAE7AE
:1030B00013F0040312D094F88231042262F38403E3
:1030C00084F8823194E7B4F84E31FFF7DFB90B682A
:1030D00003600860C4E96300FFF7FBBB94F882213A
:1030E00063F3840284F8822182E741F20A038FE5C8
:1030F00041F206138CE5074A0A49084841F20613D3
:103100001AF035FF404080F311884FF0030002DFD2
:10311000FEF757BA58440200C045020014400200AE
:1031200008740020844002002DE9F04FB7B0044637
:1031300008AFB86203F03EFFE269FA62938BBB65A9
:1031400019464FF6FF73994200F0288494F8263010
:10315000D2683A66002B40F092866E4CBD6D6E4987
:103160002368002001EBC501C1E9000001332360A1
:103170000246EC00694B6A4D6A4E2344D3E9001CB9
:10318000431AA3FB058962EB0C0205FB02994FEA87
:10319000D830DFF8CCC1644DDFF8C88140EA49403F
:1031A000A6FB0001614E386E7E666444B0F82EE0E6
:1031B0005F48F861B446C4E90032BE6D890C45F839
:1031C00026104CF826E00546002615F8014B002C89
:1031D00040F0E8830136042EF7D1564BC7F8903003
:1031E00000247B6E5449D3F800C0544B1A68C7F8CA
:1031F0008820534AC3F800C01068786400231D4635
:1032000013609E46E14601234FF4006851F8042BF9
:103210004A450AD9B8FBF2F002FB00F0B0F5006FA6
:1032200003D191461D464FF0010E0133042BEDD121
:10323000BEF1000F00F01C86404BC3F80090404BDD
:103240001D60B9F1000F0DD04FF47A6090FBF9F0DA
:10325000FDF7A8F83B4B3C4D0022FDF737FAFDF790
:10326000CDFB2860002C00F0EF80384B1B68002B52
:1032700000F0EA80364C2D49221F002312F8010B82
:1032800018B10868B9FBF0F00344A24201F104014F
:10329000F4D15B00012B4FF0010B03DD4FEA4B0B28
:1032A0005B45FBDC2B4B7B621C68002C0CDD2A4B46
:1032B0004FF0FF3003EB840153F8042BB24208BFF8
:1032C00043F8040C9942F7D194FBFBF2012AC8BFE2
:1032D000012302DD5B009342FCDB204BFB661D6893
:1032E000B54200F049877B6ED7F8882053F8253027
:1032F000B2FBF3FEBEF1000FC7F8803065DD94FB32
:10330000FEF14FF0000CC7E91DB91348E146A24693
:1033100042E000BF8C040020D81A0020B81A002018
:1033200000CA9A3B83DE1B438469002000530020BF
:10333000F87600209869002004530020B46900202A
:10334000B06900200000F43F90040020F4760020D3
:10335000FC760020FC760020DC32002094690020FE
:10336000981A00200063002003F1FF3B02F10108DE
:1033700050F82BB0BBF1040F40F2E285042C40F270
:10338000DF855C1C50F82440032C00F2D9854145B0
:1033900040F0D985CE4515D09CFBFEF6036840F879
:1033A0002630012909F10109D444C8BF0122F1DD09
:1033B000B31850F82340AC42D6D14A1C9142F7DCF6
:1033C000CE45E9D1D7E91DB95446D7F88030B9FBCD
:1033D000F3F64B4588BF002621D8BBFBF6F54FF02E
:1033E000000CDFF8B4A2E146E0465E45B9FBF6F218
:1033F0000FD8BCFBFEF10AEB82020AEB8101043A12
:1034000004390023013351F8040F42F8040FAB4292
:10341000F8D308F10108B045D944A444E5D3A34545
:103420000DDA9D494FEA8B030A1F043B02EB84042B
:103430000B444FF0FF3243F8042F9C42FBD1974BD3
:103440007A6A1E60C2F800B09549BB6DC95C00295C
:1034500040F01B82D7F8902052F82330002B00F068
:1034600014823B6EDB8D4FF40062B2FBF3F203FB80
:1034700002F3D3F500633B6240F0BB8589498A4B78
:103480000A688A481A604A685A6006688A689A60B8
:10349000CA68DA607961864B002E01F022811A68D1
:1034A0007B6EDFF8F881834D834C53F822C07C6635
:1034B000824B834CD8F800207D622D68BD641A6071
:1034C000BD6D8049DFF80CE2FA66231F0136066005
:1034D000012058557C48BB6C00680B60002276497F
:1034E000B0FBFCF31546BB638EF80020C8F8003033
:1034F000B86013468446221F12F8010B20B105461E
:103500000868BCFBF0F00344944201F10401F3D1DC
:10351000002D01F058825B00012B41F354820122FF
:1035200052009A42FCDB7B6A3A65012E15461A600E
:1035300001F035829200073222F00702C7F804D06A
:10354000ADEB020D08A8614E5349FE63ADEB020DD1
:1035500008AA002378633A63041F3246C7F8801034
:1035600007A81E464FF0FF3EAC460D6844F8045FC6
:103570000133156841F804EB634540F8045F42F8F5
:10358000046BF2DBBB6BFA6E93FBF2F3002B3B6137
:103590007CDD0023FA6EBB613B643B6D03FB02F3F1
:1035A000FB60FB6E002B67DDBA6C92FBF3F3BB662E
:1035B0000023C7E91D333B67BB6E002B4EDDBB6F9D
:1035C0003A6C1946BB6B91FBF3F892FBF3F3FA6E7E
:1035D00098447B6F93FBF2F67A6C7B6E4FEA880817
:1035E00053F82230D7F88020C7F89030A8F10408AB
:1035F0003B6B02EB080BFA6B03EB860ABB6E904445
:103600007A6B334402EB8303AAF1040AC7F88830CB
:1036100002EB86064FF0000956F8043B4BF8043FD6
:103620005AF8040FFCF7BEFE044648460D46FCF768
:10363000A9FE274B0022FCF71FFF0B460246294636
:103640002046FCF763FDFDF7D9F9D7F8903048F82C
:10365000040F9944D7F888309E42DDD17A6FB96C57
:103660003B6F0A447A67396DBA6F0A44BA67FA6EDB
:1036700001339A423B679FD13A6CF968BB690A44AF
:103680003A643A6901339342BB618AD1024B796C47
:10369000386D4FF0000B24E0DC320020F076002083
:1036A000F8760020CC32002000770020F47600204D
:1036B00094690020FC76002000530020E87600206A
:1036C000FC760020EC760020B4690020DC4200206B
:1036D0000000F43F3F9C00200BF1010B584501F026
:1036E000658153F8042B8A42F6D17B697A6CF96BB9
:1036F00053F8223041F82B30FB66BD4B3B673B6DE6
:10370000BC4A7A615B44C7F890204FF0000ABB675F
:10371000C7F848B03A6F12F8013B3A67002B01F046
:1037200001807B6C534500F0FD87D7F89030FA6E2E
:103730001E687B6E53F82AB00BEB06039A421AD927
:103740005846FCF71FFEAC4B0022FCF795FE0446E2
:103750003046FE6E0D46FCF715FE2B462246FCF762
:10376000D5FCFDF74BF900EB0B039E42F3D8D7F8DD
:10377000903006461860FB6E03EB0B08B04517D27D
:103780005846FCF7FFFD9C4B0022FCF775FE0446F3
:103790000D463046FCF7F6FD22462B46FCF7B4FCFE
:1037A000FDF72CF94045F5D8D7F89030064618605B
:1037B000FB6EB34216D95846FCF7E4FD8E4B00224F
:1037C000FCF75AFE044630460D46FCF7DBFD0B467F
:1037D000024629462046FCF799FCFDF70FF9D7F879
:1037E00090301860BB6FBA6C934240F39B87BB6804
:1037F000B3FBFBF25B457A67C0F09487C7F868B00B
:10380000C7F888A0BC6CD7F850A0D7F880B00026C5
:1038100008E0BB6F0134A34200F082877B6F9E42B9
:1038200080F07E87B4FBFAF50AFB1545D7F88820AF
:103830005BF825309342ECD1B86EFCF7A3FD6E4BDC
:103840000022FCF719FE804630468946FCF7AAFDA7
:1038500002460B4640464946FCF70EFED7F890302C
:10386000804618688946FCF78DFD02460B464046A7
:103870004946FCF74BFCFDF7C1F8A24541F37780C0
:10388000FA6B42F825000136C3E75C4B5C4C1868C4
:10389000D7F890205B4B256852F820201C78B2FBAB
:1038A000F5F305FB1323002C00F0B680022B00F08B
:1038B000F682BB6A93F82730012B00F0FE82022BC0
:1038C00000F05E83002B00F066833B6E93F80711D7
:1038D000002940F0C981FB6A9E8CBB6A9B8C751CD9
:1038E000ADB2002B40F0D681BB6A93F82630002B96
:1038F00040F0DA813A6EB2F8A830002B00F0E48292
:10390000AB4241F257805B1BB2F8AC40A2F8A83042
:10391000002C00F0CD81A54280F0DD863A6E641B5C
:10392000A4B2A2F8AC40FA6A002393843A6EB2F8CB
:10393000B830062C8CBF00240124002B40F0BE813F
:10394000386EB0F8B42090F8BF3090F8C01062B173
:10395000AA4200F2C4823D6EB5F8B0200020A5F85E
:10396000B40012B98B4200F0D3865B1A03F0030354
:10397000022B00F0BD823B6E93F8DC2093F8DD3023
:103980009A4200F02E83FA6A00239384002C40F0C0
:103990004582002E40F0428203F00CFBBC37BD464E
:1039A000BDE8F08F1FFA86F94A464FF4D0714046C1
:1039B0000CF070FB838D4B453FF40CAC124A134D59
:1039C00013681348C7F89050013B1360002345F873
:1039D00026300370064D786E0E49AB55012250F823
:1039E0002650BD6740F826300A70FFF7FABB00BFCB
:1039F000F8760020CC3200200000F43FB0690020AF
:103A0000900400203F9C0020F4760020986900205C
:103A10003E9C0020409C0020AC4C012A266840F2CD
:103A20006D81002B40F06A81BB6D83427FF441AF12
:103A3000A74BBA6D53F82230002B3FF43AAF002960
:103A40003FF437AF0EB1013E2660A24BA24A03F10C
:103A50001004002053F8041B19B91178002918BF6D
:103A600008469C4202F10102F4D100287FF421AF04
:103A70009A4B7B621A469A4BD2F80090994A18707A
:103A800011687967B9F1000F40F3C587964B8046FE
:103A900004E008F10108C14500F0928753F8042BB7
:103AA0008A42F6D18A4C7A6F904B54F82220904D7E
:103AB00043F82820D4E90001FB633A67D4E90223E4
:103AC0008C4EC7F89040C5E90001C5E9022336686D
:103AD000BE66002308EB0902C7F88020C7F86C9087
:103AE0009B46C7F85080FA6912F8013BFA61002B37
:103AF00000F0B4827B6F9B4500F0B082D7F8903025
:103B00001E683046FCF73EFC7B6E53F82B30BB65DD
:103B1000044618460D46FCF735FC774B0022FCF7AF
:103B2000ABFC02460B46C7E91E0120462946FCF7BE
:103B3000EDFA8046386F8946FCF724FC02460B46B6
:103B400040464946C7E92223FCF708FFE8B1C7F819
:103B500048B0D7E91EAB49464046FCF74FFF064642
:103B6000FCF710FC52465B4604460D46FCF7CEFAC5
:103B7000D7E9222380468946FCF7F0FE0028EAD1E7
:103B8000D7F89030D7F848B01E60D7E91E23D7E9A0
:103B90002201FCF7BBFA22462B4680468946FCF7F9
:103BA000DDFED8B1C7F888B0D7E91EAB52465B46F8
:103BB00020462946FCF7A8FAFCF720FF0646FCF74A
:103BC000E1FB42464B4604460D46FCF7E5FE002865
:103BD000ECD1D7F89030D7F888B01E603B6FB34275
:103BE00000F283853C6DD7F88020944280F23682C3
:103BF000BB6EBA6DD7F86CA0B3FBF2F30026C7F822
:103C0000883005E0D7F880300134A34200F02682E6
:103C1000D7F88830B34240F2218294FBFAF5324B58
:103C20000AFB154553F825305B45EBD1D7F89030AA
:103C30001868FCF7A7FB804630468946FCF7B2FBC4
:103C4000D7E91E23FCF718FC02460B4640464946BE
:103C5000FCF75CFAFCF7D2FEA24540F36F82FA6BE8
:103C600042F825000136CDE793F8BE309A0700F1FF
:103C70008B813D2900F08881FA6A968CBA6A928C11
:103C8000751CADB2002A3FF42FAE3A6E43F002032A
:103C900082F8BE30BB6A396E93F826300022A1F854
:103CA000A820002B00F010813B6E0024A3F8AC404C
:103CB0003A6EB2F8B830002B3FF442AEAB4240F25D
:103CC0001F815B1BA2F8B8303AE600BFEC0500206C
:103CD000CC32002098690020F8760020FC76002085
:103CE0003D9C0020B0690020DC320020DC42002036
:103CF00000770020B46900200000F43F002E7FF41C
:103D0000D5AD012B7FF4D2ADBB6D83427FF4D1AD35
:103D1000BF4ABB6D7A6152F82330002B3FF4C9AD26
:103D200000293FF4C6ADBB4B786E1B68013B50F8D1
:103D30002350002D3FF4BDADD7F8900050F823007C
:103D4000FCF720FB024649F64040B0FBF5F0144674
:103D50000D46FCF717FBB04B0022FCF7B7FC024600
:103D60000B4620462946FCF717FE00283FF4A1AD7C
:103D7000AA4BAB4CFC66D3E90001D3E90223D4F88B
:103D800000B0A34CA44DE360A64B20601E7007F169
:103D900098036160A260A246B046BB64C7F8903049
:103DA00007F1A8090024FA6912F8013BFA61D7F873
:103DB000902042F8048BC7F89020002B41F0D4806B
:103DC0004FF0FF33C9F8003008F10108B8F1040FD3
:103DD00009F104090AF1040AE5D107F19803002169
:103DE00007F1A8060131042900F04B86181D024690
:103DF00052F8045B1C6807F1B80C0CEB840E0CEB5A
:103E0000850C5EF810EC5CF810CCE64584BF1D60B4
:103E100042F8044CB242EBD10346E3E70121FB6ACE
:103E200081481A7FDD68069500230332CDE903142B
:103E3000CDE90133059000931846D2B201210DF06F
:103E400077FD30F002033FF4A7AD10F0AFFB8542E1
:103E50003FF4A2AD754A7649764840F2B2731AF043
:103E600086F8404080F311884FF0030002DF93E5AD
:103E7000E146B9F1000F3FF4F5A9FFF7E5B96E4C43
:103E800003F098F82268BB6D6C490132226001EBA7
:103E9000C3010022C1E90002DC00FFF76BB9684AE8
:103EA00013680133012B13603FD003F083F8BB6A22
:103EB00093F82730012B7FF402AD3A6E0023A2F86D
:103EC000B830A2F8B43000E53B6EB3F8AC40002C3B
:103ED0007FF421ADB3F8AA40A3F8AC4018E55B1A13
:103EE00003F00303521B022BA0F8B4207FF443AD70
:103EF0003B6E93F8C130013B012B3FF63CAD42E5F0
:103F000010F0E0FA0146002800F0FC83386EFA6AEF
:103F10000023928BA0F8B8300D230868CA800B717B
:103F200010F09CFA10F0A4FA0AE503F043F8454AB1
:103F30004549A0FB0234DA0B42EA44420A60B8E485
:103F40004246FFF73BBA9CFBFEF808F1FF3B5B459E
:103F50000FDA00EB8303043BC7F888303B4B03EBDD
:103F60008808D7F8883000E09C6843F8044F9845EB
:103F7000FAD14FF0FF3340F82B301A44FFF71EBA46
:103F80003B6E3D2183F80711386E13F0F7F9BC370B
:103F9000BD46BDE8F08FFB6A93F85230180705D490
:103FA0003B6E93F82A31D9077FF58FACFB6A3A6EE6
:103FB0001B8CB2F8B620386E991D8A42C4BFD31A42
:103FC000063BB0F8B210CCBF9BB21346994200F04A
:103FD000CC80A0F8B230396EA1F8B430A1F8B82086
:103FE00073E4FB6A9B8C002C00F04185013399B28D
:103FF00015E7174ABB6DD35C002B7FF446AC15491F
:10400000154C0B70B96D2668012353541AE500BF97
:10401000CC320020F47600200000F43F007700202E
:10402000946900203E9C0020F94E01005844020093
:1040300004460200144002008C040020D81A00201C
:10404000C432002000CA9A3BC8320020D43200207B
:10405000348700203F9C0020EC050020D7F89030EA
:104060000BF1010B0433BBF1040FC7F890307FF460
:104070003AADD7F86C90B9F1010F09F1FF3140F377
:10408000DE849F4B9F4AA04E181F00EB890053F817
:10409000044F01340AD153F8044C1568B4F1FF3FC2
:1040A00017BF56F82440556064195460984202F1D5
:1040B0000402ECD19348954A0023013350F8044B95
:1040C00042F8044B9945F8DC002940F32A81FA6B49
:1040D0008B4B8D4E8E4D09F1804E0EF1FF3E03EB62
:1040E0008E0C002402EB8E0E4FF0FF38934602E058
:1040F0008C4280F2138153F8042B013204F1010445
:10410000F6D01A680132F3D08C420BDAF2466046E0
:1041100050F8042C40F804295AF8042C4AF80429D1
:104120008342F5D153F8040C55F8242056F82000AA
:10413000C3F8008002444BF82420D9E7FCF722F9A9
:104140008046B86E8946FCF72DF9724B0022FCF7C9
:1041500093F90B46024649464046FBF7D5FFFCF76C
:104160004DFCFB6B43F825007CE5396EB1F8B810C7
:1041700000297FF4AAAB2EE7A200D31D23F007018C
:10418000C7F850D0002CADEB010DBB6608AB40F377
:1041900048845B49C7F88010043A9818043B0A46E3
:1041A00052F8041B43F8041F8342F9D1012CD7F8BD
:1041B0008830BA6F93FBF2F300F0478494FBF3F37B
:1041C000504AC7F848B04FF0FF3511687D679246F6
:1041D0002A463D674FF001090E461D469346BA6FC9
:1041E0005AF8043F99FBF5F002FB00F0A3EB060838
:1041F000FCF7D8F8474B0022FCF73EF9FCF7FEFB32
:10420000A8EB0008D84509D2D7F8803053F82930F8
:10421000032B03D87B67C346C7F8709009F10109E7
:10422000A145DCD1BB6ED7F848B0D7F8882023F081
:104230000703D7E91C56ADEB030D7B6E08A953F8B5
:104240002630B2FBF3FA2E4A081F00234FF0FF3C42
:104250008E460133116840F8041FA34242F804CB94
:10426000F7DB7146BAF1000F3EDD94FBFAF0244B08
:10427000C7F880B04FF0000EF046994695FBF4F376
:1042800004FB135351F823309E4208D0013595FBAF
:10429000F4F304FB135351F82330B342F6D19EFBE1
:1042A000FAFC012849F82C60C8BF012313DD03EB99
:1042B000050B9BFBF4F204FB12B20CEB030B51F861
:1042C0002220B24208BF034603F1010318BF49F898
:1042D0002B208342EBDB08F10108D04505F10105F5
:1042E000A644CBD1D7F880B0FB6E1E601D687B6AF8
:1042F000D7F850D01C68084BD3F80090FEF7F3BFF6
:10430000DC320020DC420020EC520020107700203C
:10431000D84200200000F43FB4690020B9F1000F3A
:1043200009DD9C499C4A0023013351F8040B42F8F3
:10433000040B9945F8DCBA6E4FF4006393FBF2F37B
:10434000012B964BFB6140F36983954A3A64954A89
:10435000C7F880207B6400220123BA637B66D7F80C
:1043600080301B68013308BF002507D08D4B002526
:1043700053F8042F013205F10105F9D17B6AC7F822
:1043800030D01E68B300073323F00703ADEB030DF5
:10439000002E06F1FF3308ACFB6340F39281231F2C
:1043A0003B621A46002301334FF0FF319E4242F830
:1043B000041FF8D1B86EFBF7F5FF7B4B0022FCF72A
:1043C0005BF8AE42C7E9160140F3F280AB001A1F5A
:1043D000E3187149C7F89030D7F8803009687963DD
:1043E0001344FB66C7F888500FE0D7F890301A46A0
:1043F0004FF0FF331360D7F890300433C7F8903094
:10440000D7F888309E4240F3D380FA6ED7F88810F0
:1044100052F8043FFA6601330A4601F10101C7F878
:104420008810E2D1614B53F82140FB6B934200F0BE
:104430002881594BD7F8882053F82200001B7D6E45
:10444000D7F89030012D1860D5D02046FBF79AFFA1
:1044500002460B46786BC7E91423FBF793FFD7E9B5
:104460001623FBF753FE824628468B46FBF79AFF3E
:10447000C7E912010123BD6EBB672846FBF792FF17
:10448000494B0022FBF7F8FFD7E91223FCF71EF98E
:10449000D7E91423FBF73AFEFCF788FA0446FBF74A
:1044A00081FF52465B4680468946FCF775FAC0B1EB
:1044B000C7E91C56D7E916562A46334640464946B0
:1044C000FBF722FEFCF772FA0446FBF76BFF52463D
:1044D0005B4680468946FCF75FFA0028ECD1D7E9B5
:1044E0001C562D4A002301E0B34206DA52F8041F9D
:1044F000A142184603F10103F6D9D7F8803053F8EA
:10450000203001330ED0D7F890301A464FF0FF33E9
:104510001360BA6EBB6F15447A6E01339342BB676A
:10452000ABD168E7D7F88020431C02EB830202E09E
:10453000B34206DA013352F8041B013184461846AF
:10454000F6D0D7F8802052F82C200132E1D1FA6B56
:10455000624500F0AB80104A52F823301C1BA04685
:10456000D7F89030D3F80090A145D2D94046FBF758
:1045700019FFD7E91623FCF7F1F90028C9D0B8F1E3
:10458000000FC6DDB9F1FF3FC3D0D7F890301C60F3
:10459000BFE700BFDC42002010770020B869002090
:1045A00010870020DC3200200000F43F0C77002050
:1045B0007B6CD7F82080D7F840901A464FF0FF3335
:1045C00013603B6CD7E916AB1A4600231360002436
:1045D00058F8045F2846FBF7D5FE52465B46FCF7C9
:1045E000BDF940B13DB1D9F800309D4203D97B6C93
:1045F000C9F800501C600134A642E9DC7B6ED7F894
:1046000030D05A00BB6B7A660133BB637B6C0433DA
:104610007B643B6C04333B64C54B1B68BB6619462B
:104620004FF4006393FBF1F393423FF798AEBB6BFB
:10463000082B0BDCFB69B96B03EB8103043B4FF0E8
:10464000FF320131092943F8042FFAD1B948BA4D94
:1046500000F124066FF0404C50F8043F002B0CDBB7
:1046600003EB0C0255F8234005EB82020360013B8B
:1046700003D352F804198C42F8D08642ECD1FFF7EC
:1046800018B9786BFBF77EFED7E91623FBF73EFDE2
:10469000804620468946FBF775FE02460B4640469B
:1046A0004946FBF731FDFCF7A9F9C8E642464B46FF
:1046B00050465946FBF728FDFCF778F9804604463A
:1046C0004EE77B6C1A464FF0FF3313603B6C1A4683
:1046D0000023136092E7386E082112F04FFEFFF7B7
:1046E0005DB9BA6D1A60FEF7DBBE2B462246D7E9EC
:1046F0001E01FBF70BFDFCF781F9D7F8903018602D
:10470000FFF770BA3A6E0123A2F8B830FFF718B974
:10471000023B052285F8C03085F8C120FFF72BB990
:10472000D7F888A0D7F890300AF1010A0433BAF11B
:10473000040FC7F890307EF4EDAF396D012917D022
:104740007E4B7F4A7F4C181F00EB810053F8041FFB
:10475000013109D153F8041C15684E1C17BF54F8D9
:104760002110556049195160984202F10402EDD1BF
:104770007349714A3C6D0023013351F8040B42F830
:10478000040B9C42F8DC7B6EBA6DBE6853F82200C5
:104790008642C0F09280D7F83CB03B6A00FB03F041
:1047A000FBF7F0FD684B0022FBF766FE7B69BA6DF4
:1047B000044653F822000D46FBF7E4FD02460B4683
:1047C00020462946FBF7A2FCFCF718F98246FBF7C6
:1047D000D9FD044630460D46FBF7E4FD5A4BDBF8A5
:1047E00000600022FBF748FE804689463046FBF712
:1047F000C9FD42464B46C7E92489FBF787FC2246A0
:104800002B4680468946FCF7A9F8E8B1C7F878B08E
:10481000D7E924ABC7F8886052465B462046294654
:10482000FBF772FCFCF7EAF80646FBF7ABFD4246E5
:104830004B4604460D46FCF7AFF80028ECD1B246D3
:10484000D7F878B0D7F888607B6A1C68611C0129AA
:1048500040F38080BD6DD7F880C00020012311E0B7
:104860009C4215DD5A1E5CF82260B6F1FF3F2DD048
:104870005CF82320013252D05A1C8A420DDA5BF8D0
:1048800023601346B245F7D35BF823205245E7D89F
:104890009C42E7D05A1C8A42F1DB00285AD0244BB4
:1048A0003A6A1E68B96D7B6E013253F82100B6FB7F
:1048B000F0F393423A623FF670AFD7F804D0234B3F
:1048C000234C012226681A70FFF7BCB89E1E5CF8C4
:1048D0002660AE4201D0012B03DC012BCCD15CF869
:1048E000046C03F18043033B0BEB830008300CEBBB
:1048F000830E07E053E901639E420BD1531C09D09C
:104900005EF80469013603469046A0F1040002F106
:10491000FF32EFD04CF828500B460120ACE7AE42F6
:1049200022D0002B20DD4CF8235001200B46A3E7BA
:10493000B4690020B469002010770020DC32002028
:10494000DC420020EC5200200000F43F419C00209B
:10495000EC050020BA6D9A484FF4D0710BF09AFB29
:104960003E2112F00BFD9AE7002B85D1DBE7FBF728
:1049700009FD8046B8688946FBF714FD914B00227B
:10498000FBF77AFD0B46024649464046FBF7BCFB67
:10499000FCF734F8FB6B43F82500FEF774BF8A4A36
:1049A000B86D4FF0FF33C2E9000388E7D7F850B085
:1049B000FEF79BBE386E3E2112F0E0FCFEF7EEBF24
:1049C000C846FFF76FB801237A6A9E421360E6D0AB
:1049D0007D4C7E4D22682968C7F8982000224FF050
:1049E000FF30C7F8A8102A60F96EBA6B92FBF1F29B
:1049F000002AC7F88040FD632060C7F804D03A6100
:104A00003B657EF743AE07F1A8033B6307F19803CC
:104A10007B63FEF7BEBD8046FFF744B80023BB634F
:104A200008E67B6ED7F8882053F8043CB2FBF3FA13
:104A3000ADEB010D4FF0FF3508A92E4612E43FF40F
:104A400039AB00293FF743AB75E4BB6ED7F888203C
:104A500023F00703ADEB030D7B6E4FF0FF3553F8EA
:104A6000043CB2FBF3FA08A92E46FFF7ECBB9E42CA
:104A70003EF492AF013399B200293EF48DAFFFF7B7
:104A8000CEB9534B1B68C7F88830524B1B68C7F828
:104A900090300023BB65BA6C52F8043BBA644E4AAE
:104AA000BB67D35C002B40F09D804C4B4C491A787F
:104AB000FB6E1B68BB670023C1E90033C1E9023309
:104AC0009946D7F8903001337B67002A7EF4F1AE27
:104AD00007F1B80303EB890353F8208C3E4B13F81E
:104AE0000830ABB9B9F1030F5FDC09F1010307F13D
:104AF000980202EB830203E0042B3EF4DAAE0133AA
:104B000052F8041B3448405C884699460028F3D08C
:104B1000B9F1040F3EF4CDAEBB6F434545D0D7F895
:104B20008800FBF73FFC274B7C6E0022FBF7A4FCC0
:104B300054F82840C7E92001002C40F060820FF2B1
:104B4000780BDBE900AB4FF0FF36D7E92023504666
:104B50005946FBF703FF40B37B6FB34225D2204693
:104B6000FBF710FC174B0022FBF786FC0546D7F835
:104B700090000E46FBF716FC02460B4628463146CF
:104B8000FBF7C4FA52465B46FBF7BEFAFBF736FF6B
:104B9000421C92000523B2FBF3F39C4200F21B82FD
:104BA0001B1B02D09C4200F2198209F10109B9F1E4
:104BB000030F8DDDFEF77DBE0000E0FFFFFFEF413C
:104BC000006300200000F43FDC320020DC420020C3
:104BD000B469002098040020F87600203E9C002054
:104BE000DC520020BA6F7B6E53F82230BB63D7F8DB
:104BF000882092FBF3F3002B40F38581DFF860A35C
:104C0000DFF860934FF0000BC7F844B05646DA4621
:104C1000CB4656F82A30BA6F9A4208BF54460BD09A
:104C20000AF10103B96F06EB8303544653F8042BD2
:104C3000914204F10104F9D104F1010ABD4B56F887
:104C40002A501B683B67042D51D853463A6F934254
:104C50005BDA5BF82320B84B5BF82A101B68501A0C
:104C6000984201D3914201D9042D66D85BF82420E3
:104C7000C7F88020B148BA6F50F82200D7F88020DA
:104C800003441344994201D2032D56D9AC4BBA6F59
:104C900053F824007B6E53F82250FBF773FB8046D9
:104CA0004FF4FA60B0FBF5F08946FBF76BFBA54BC0
:104CB0000022FBF70BFD02460B4640464946FBF738
:104CC0006BFE08B1002D38D1A246796C9E4BB86BB3
:104CD0001A689E4BC7F88820013192FBF0F28A4295
:104CE0001B78796440F31181002B92D0DDE6A21C81
:104CF00006EB8202534603E052F8041B0429A5D9AF
:104D0000396F8B4203F10103F6DBDBF80000FBF7A0
:104D100039FB8046D7F888008946FBF743FB894B6F
:104D20000022FBF7A9FB02460B4640464946FBF72B
:104D3000EDF9FBF763FE02468DE7DBF800303B64DC
:104D400000237B67BB6DC7F880A01D4601333B6322
:104D5000B24607F19802B86D2B4602EB850252F875
:104D6000045B7B49495D49B198420AD1396B431CC8
:104D70000429F4D15646D7F880A0A6E70133194696
:104D8000F6E77B637B6ED7F8881053F82530FB631A
:104D90008B42B1FBF3F2BA667BD8002139655AF831
:104DA00021309D4209D04B1C0AEB830200E0013305
:104DB00052F8040B85421946F9D14C1C5AF824309C
:104DC000042B00F287805BF821605BF82430D7F871
:104DD00090209B1B934212D93A6FA2420FDD796F4C
:104DE0003A6D8B4202F1010640F28780002A00F002
:104DF0008480BB6EB3424CD93E652146CFE7D7F8DD
:104E00008800FBF7CFFA4F4B0022FBF735FB8046BB
:104E1000386C8946FBF7B6FA02460B4640464946CF
:104E2000FBF774F9804630468946FBF7ABFA024639
:104E30000B4640464946FBF767F98046D7F8900095
:104E40008946FBF7AFFA02460B4640464946FBF758
:104E5000A3FD28B97D6B0135032D7FF77AAF89E774
:104E60003B6FA342F6D1786FFBF79CFA0B460246E4
:104E700049464046FBF77CFD3B6D5E1C08B9002BA4
:104E8000B7D140464946FBF791FDBB6E7867B34208
:104E9000B2D87B6FD7F890209A1A9200042A56460F
:104EA000D7F880A07FF611AF2A4BF96BA3FB023233
:104EB000B1EB920F4FEA92037FF607AF00229BB24D
:104EC000A8B2114610F06EFA48B3234B1B68C7F81E
:104ED0009030FAE68B1C3E6F0AEB830300E0144629
:104EE000B44204F1010206DA53F8040B0428214607
:104EF000F5D8144667E74C1C65E77B67BB6EB34289
:104F00003FF67AAFC5E7114B1B78BA6D0132042A20
:104F1000BA653FF4CAAD002B3FF4BDADC5E50F4AFD
:104F20000D4B10601B68094AC7F8903001231370BD
:104F3000CBE600BFFC7600209C040020EC52002051
:104F4000DC5200200000F43FB46900203E9C0020A9
:104F5000F8760020CDCCCCCC98040020C4320020C0
:104F6000DC320020DC4200207B69DAF8006053F874
:104F70002B309E421BD27B6E53F82800FBF702FABF
:104F800022462B46FBF778FAC7E922013046FBF7A9
:104F9000F9F9D7E92223FBF7B9F8FBF72FFD7B6975
:104FA000CAF8000053F82B309842F0D306467A6EC8
:104FB00052F82B00F61AFBF7E5F92B462246FBF7D1
:104FC0005BFAFBF71BFDB6FBF0F303FB1066C9F8B9
:104FD0000060FEF7F9BE042A7FF6E7AD00229BB21F
:104FE0001FFA88F0114610F0DDF900287EF461AC5C
:104FF0002649274B086001221A70FEF75ABCD7F8E1
:105000008830B3FBF4F29C423A673FF698AD4FF01C
:10501000000B01254FF0FF36A2461E4B53F82530FA
:10502000434508BF05F1FF320BD01A4A6B1C02EB57
:10503000830100E0013351F8040B40452A461D4628
:10504000F8D1144B144853F8221050F8254050F86A
:10505000223004290CD9E41A2046FBF793F9D7E94A
:105060002023FBF77BFC18B114B1A64228BF2646CB
:105070003B6F0BF1010B5B4505F10105CDD83046C7
:10508000FBF780F954468B4682465EE5C432002029
:105090003E9C0020DC320020DC42002000000000AA
:1050A0002DE9F04F1746126891F81CC0D2F8009015
:1050B0000C464FF0000A8FB0C2F808A01E46638E5F
:1050C000ADF8283024310622CCF3C01380460CA85A
:1050D00035688DF82C301AF0DCFEA4F81CA0797C21
:1050E00097F812A011F0010104F12B004FF0060215
:1050F00000F0CE8004F11E011AF0CBFEBAF1FF0FD2
:1051000004F1250304F11F0B00F0CC805A465046F1
:1051100004F11E010B9313F0C9FAA27F0B9B02321C
:10512000A2770CA9184606221AF0B3FEB28AB9F883
:105130003030718A6186A286E38615F03DF884F8E6
:105140003800284610F0CCF821463082E0804046F6
:105150000FF084F90FF08CF996F82C00DFF88081BD
:10516000C0F3C00100F0070014F032FC00248346B5
:10517000312300F252402B60C5E9014450A3D3E92A
:105180000023A0FB0801FBF759FCFA68BDF82810C2
:10519000738A40F2E24606FB016A20F07F40A2F5E6
:1051A0009672E860022192440120224606FB03F633
:1051B0000AF0E2FF48460FF077FC821CD2B2424B65
:1051C0000092012120460CF003FC012211462346E7
:1051D000009420460CF0FCFB284610F081F8069560
:1051E0003A4A3B4BD7F80890079240F2CA210891FF
:1051F0000593EB68049386FB086700F1030C30A36A
:10520000D3E90023304639465FFA8CF50394FBF767
:1052100015FC104619464FF47A720023FBF70EFC7A
:1052200027A3D3E90023844639463046CDF808C089
:10523000FBF704FCAAEB0B0A21A3D3E900230646E3
:10524000AAFB08010196FBF7F9FBA9F1310920F04F
:105250007F404B4600902A46204601210CF04CFB33
:1052600030F002030CD01B4A1B491C4840F2CB23F0
:1052700018F07DFE404080F311884FF0030002DFFC
:105280000122104602210AF077FF0FB0BDE8F08F2F
:105290001AF02AFEBAF1FF0F04F1250304F11F0BE7
:1052A0007FF434AF1846062200211AF01DFE9DF847
:1052B0002C30A3770CA9584606221AF0EAFD35E7F0
:1052C0008D49FD1A07000000ED7C0100F17C010012
:1052D000217D0100A4460200D445020014400200D2
:1052E00000CA9A3B000000002DE9F04F83B004464D
:1052F00015F098FE10F0FF0F0AD114F07DFBCC489A
:10530000214615F055FD03B0BDE8F04F15F05CBE29
:1053100015F0A8FE5FFA80F815F02EFFC6B215F062
:1053200035FF074616F034F9C5B216F01FF982466C
:1053300015F0EAFE814614F05FFB002E40F0A280DB
:10534000002D40F0B180FF27B8F1000FD7D0A37D2A
:10535000190700F19F80002E40F04F8101200FF0CF
:1053600087F98046002800F06781A3685FFA89F614
:10537000002B00F0CC80A37D1A0740F14A8198F8F9
:105380001C0010F00F0340F0958098F81D30252B7D
:1053900000F20C8103200FF06BF90028AFD015F05C
:1053A000FFFFA36A814643B9E28C40F2712303FBFD
:1053B00002F3B0FBF3F203FB120923689D48DB689C
:1053C0000722A3FB000102FB031197A3D3E90023EB
:1053D000FBF734FBA0F242334B4590D315F06EFE41
:1053E000D4F808A015F04CFE98F81C300278C3F3EE
:1053F0008013DB0102F0500243F005031343222225
:10540000037042708146384613F004FEE37DDA07EC
:10541000834609F1020040F12681BBF1000F00F044
:10542000228199F8003043F0400389F800300622C9
:1054300059461AF02EFD062208F11E0109F1080056
:105440001AF027FD04220AF1080109F10E001AF0F2
:1054500020FD03220AF10C0109F112001AF019FDD6
:10546000012389F8153015F09BFF03465046019340
:1054700012F064FB83B2B3F5006F40F21A8103B0FF
:10548000BDE8F08FA07DF9B2C0F3C00013F0E0FDDD
:10549000074659E7002E7FF461AF384613F094FEBB
:1054A00000287FF45BAF2AE75FFA8AF013F03AFE38
:1054B000074649E7012B51D198F81D300C2B7FF49A
:1054C0001EAF08F12409C00949463A4613F0ECFE24
:1054D00000287FF45FAFE37DDB0700F1D281A37D7D
:1054E00098F81C00C3F38012B2EBD01F00F0F481D7
:1054F000C3F3C10398070AD598F91C30002B06DACC
:1055000098F8293003F0C003402B3FF443AF98F8DC
:105510001C0010F00F0321D198F81D30252B3FF609
:10552000EEAE94F91620002A03DAA268002A00F0F1
:105530003881252B98BF4FF0000937D8002B3FF456
:10554000DEAEA368002B7FF4DAAE002D14BF39461F
:10555000FF214A46304614F073FDD0E6062B79D081
:10556000022B7DD0012B21D198F81D300C2B7FF41C
:10557000C6AE08F1240AC00951463A4613F094FE1B
:105580008146A8BBA37D98F81C00C3F38012B2EB40
:10559000D01F00F09881C3F3C103980704D598F990
:1055A0001C30002BC0F2838198F81C0000F00F0023
:1055B00004287FF4A4AE98F81D30252B3FF69FAE4B
:1055C000A37DDA077FF59BAE15F05AFD98F81C30E5
:1055D0000278C3F38013B3EBD21F7FF490AE083090
:1055E000062208F11E011AF044FC00287FF487AE61
:1055F00098F81D304FF00009A0E73946284613F00F
:105600001FFE00287FF4AAAEA37D1B077FF577AEAF
:10561000A4E6FF2F36D0237EDB1BB3FA83F35B09AE
:10562000002B7FF4ACAE72E700CA9A3B000000008A
:105630009D9D01008D49FD1AB54AB649B64840F214
:10564000962318F094FC404080F311884FF003003B
:1056500002DF8AE698F81D30252B7FF662AFA5E7BA
:1056600098F81D3065E7A37D99F80020C3F38013F7
:1056700063F3861289F8002004F1190106221AF05A
:1056800008FCD8E698F81C00C3F34013C0F380125E
:1056900093427FF43EAF062208F11E0104F11F0081
:1056A0001AF0E7FBB0FA80F35B09002B7FF467AEDA
:1056B0002DE7BAF81200BAF81410A28AA9F81C2033
:1056C000A9F81630A9F81800A9F81A1005220AF14D
:1056D0001C0109F11E001AF0DCFB9AF8222099F84F
:1056E000233062F3040389F8233014F065FD99F840
:1056F000233060F3471389F82330484615F03EFC09
:1057000015F086FC002840F09B808448214615F067
:105710004FFB002E40F0B080237943F00102DB07FD
:10572000227100F19B800EF0C1FF09230646037130
:105730004FF6FF73242298F81C80C38049461C3022
:105740001AF0A7FB337FB460C8F3401868F3451321
:10575000337715F0E3FD00213061084615F01EFC9B
:10576000002D08BFFF27019BB776E27D03F5DB63C1
:105770001B1A12F00102736111D0BBF1000B18BFAC
:105780004FF0010B737E30686BF300037376314684
:105790000EF0A4FF03B0BDE8F04F0EF0AFBF93468C
:1057A000F0E7962015F008FD002015F06DFC002DA7
:1057B00014BF3946FF213046002214F041FC002876
:1057C0007FF49DAD15F05CFC98F81C300278C3F3B3
:1057D0008013DB01054602F0700243F0030313431C
:1057E0000C222B7038466A7013F014FCE37DDE0740
:1057F00001464DD500284BD02B78284643F0400376
:1058000000F8023B06221AF044FB08F11E010622B2
:1058100005F108001AF03DFB284615F0AFFB15F026
:10582000F7FB002863D115F0B3FDA37D3C4843F09E
:1058300001032146A37503B0BDE8F04F15F0B8BAD7
:10584000334A384934484FF4467318F090FB4040CF
:1058500080F311884FF0030002DF56E72C4A3249EB
:105860002D4840F23E3318F082FB404080F311880F
:105870004FF0030002DF56E715F038FC8AF8890084
:105880004AE7384613F0C6FB00287FF440AE26E610
:10589000A37D2A78C3F38013284663F3861200F8A9
:1058A000022B04F1190106221AF0F3FAADE798F879
:1058B000293003F0C003402B7FF476AE98F81D30FA
:1058C0004FF001093AE65146062204F119001AF098
:1058D000D0FAD0B1A37D5EE64946062204F1190054
:1058E0001AF0C7FA00283FF455ADA37D00E6084A38
:1058F0000C49094840F2993318F039FB404080F3D5
:1059000011884FF0030002DF8DE798F81D3015E68F
:10591000544A0200A04A020014400200E19F010024
:10592000B99D0100C44A0200D04202004368054A02
:105930000BB9136070471068990AB0EB932F18BF2A
:1059400011607047581D002007B5D0E9011300937E
:10595000036803488A0A18F00AFB03B05DF804FBE9
:10596000974E02002DE9FF41104E114FDFF848809D
:1059700005460C46002356F82320AA420BD1626844
:105980000293A3680193236800933968930A404601
:1059900018F0EDFA04230133032BECDD054B012253
:1059A00000201A7004B0BDE8F08100BFD41C0020B4
:1059B000D01C002014070020D64E02002DE9F04133
:1059C00088B005461C22002101A81AF08DFA114E5C
:1059D000114FDFF84C80002456F82430AB420FD131
:1059E000384618F0C4FA28461AF017FE0B4A00236E
:1059F00046F82430C8F800301368013B13600424D3
:105A00000134032CE8DD01A9284605F059FA08B055
:105A1000BDE8F081D41C00202C4F0200541D002052
:105A2000D01C00202DE9F0430378023B012B8DB000
:105A300080460F4603D901200DB0BDE8F0834478BD
:105A400014F00104F7D1DFF81C9198F801309C4262
:105A5000F1DAD8F80410022221440DEB02001AF00A
:105A600018FA08AD0023BDF802208DF804308DF837
:105A70002030294641F60D0301A8ADF80620ADF807
:105A800022301AF0D5FA064620B1484618F06FFACF
:105A90000234DAE7304CDFF8D080206861682246B3
:105AA00002AB03C352F8080F5168224604AB03C38C
:105AB00052F8100F516806AB03C3C146183458F8AA
:105AC00026308BB936F002030ED104F0EBFB88BB15
:105AD00094E80F0085E80F0008EB860304AA294626
