:1000000000A4002085550000A5DD0100C1550000B9
:10001000C1550000C1550000C1550000000000009E
:100020000000000000000000000000000953000074
:10003000C155000000000000C1520000F5CB0100D6
:1000400045550000D172010045550000455500009E
:100050004555000045550000455500004555000038
:100060004555000045550000455500004555000028
:100070004555000045550000455500004555000018
:100080004555000045550000455500004555000008
:1000900045550000455500004555000045550000F8
:1000A00045550000455500004555000045550000E8
:1000B00045550000455500004555000045550000D8
:1000C00045550000455500004555000045550000C8
:1000D00045550000455500004555000045550000B8
:1000E00045550000455500004555000045550000A8
:1000F0004555000045550000455500004555000098
:1001000070B54FF0FF0C4CF4E06C1CEA11541DBFAD
:100110001CEA135594EA0C0F95EA0C0F00F0DEF878
:100120002C4481EA030621EA4C5123EA4C5350EA5D
:10013000013518BF52EA033541F4801143F48013AE
:1001400038D0A0FB02CE4FF00005E1FB02E506F03F
:100150000042E0FB03E54FF00006E1FB03569CF094
:10016000000F18BF4EF0010EA4F1FF04B6F5007F9A
:1001700064F5407404D25FEA4E0E6D4146EB06060C
:1001800042EAC62141EA55514FEAC52040EA5E5095
:100190004FEACE2EB4F1FD0C88BFBCF5E06F1ED83F
:1001A000BEF1004F08BF5FEA500E50F1000041EB76
:1001B000045170BD06F0004646EA010140EA020023
:1001C00081EA0301B4EB5C04C2BFD4EB0C0541EA45
:1001D000045170BD41F480114FF0000E013C00F35A
:1001E000AB8014F1360FDEBF002001F0004170BD7E
:1001F000C4F10004203C35DA0C341BDC04F1140497
:10020000C4F1200500FA05F320FA04F001FA05F222
:1002100040EA020001F0004221F0004110EBD370EF
:1002200021FA04F642EB06015EEA430E08BF20EA1B
:10023000D37070BDC4F10C04C4F1200500FA04F3BE
:1002400020FA05F001FA04F240EA020001F0004150
:1002500010EBD37041F100015EEA430E08BF20EAC3
:10026000D37070BDC4F1200500FA05F24EEA020E0B
:1002700020FA04F301FA05F243EA020321FA04F03A
:1002800001F0004121FA04F220EA020000EBD370F1
:100290005EEA430E08BF20EAD37070BD94F0000FF1
:1002A0000FD101F00046400041EB010111F4801F25
:1002B00008BF013CF7D041EA060195F0000F18BFD6
:1002C000704703F00046520043EB030313F4801F12
:1002D00008BF013DF7D043EA0603704794EA0C0FCC
:1002E0000CEA135518BF95EA0C0F0CD050EA4106E2
:1002F00018BF52EA4306D1D181EA030101F000415F
:100300004FF0000070BD50EA410606BF1046194686
:1003100052EA430619D094EA0C0F02D150EA013692
:1003200013D195EA0C0F05D152EA03361CBF1046D3
:1003300019460AD181EA030101F0004141F0FE4172
:1003400041F470014FF0000070BD41F0FE4141F4F6
:10035000780170BD81F0004102E000BF83F00043EE
:1003600030B54FEA41044FEA430594EA050F08BF50
:1003700090EA020F1FBF54EA000C55EA020C7FEA14
:10038000645C7FEA655C00F0E2804FEA5454D4EB91
:100390005555B8BF6D420CDD2C4480EA020281EA5B
:1003A000030382EA000083EA010180EA020281EA93
:1003B0000303362D88BF30BD11F0004F4FEA0131E5
:1003C0004FF4801C4CEA113102D0404261EB4101F4
:1003D00013F0004F4FEA03334CEA133302D052427A
:1003E00063EB430394EA050F00F0A780A4F1010436
:1003F000D5F1200E0DDB02FA0EFC22FA05F2801870
:1004000041F1000103FA0EF2801843FA05F3594155
:100410000EE0A5F120050EF1200E012A03FA0EFCD4
:1004200028BF4CF0020C43FA05F3C01851EBE371FE
:1004300001F0004507D54FF0000EDCF1000C7EEB1B
:1004400000006EEB0101B1F5801F1BD3B1F5001F59
:100450000CD349085FEA30004FEA3C0C04F1010478
:100460004FEA445212F5800F80F09A80BCF1004FA1
:1004700008BF5FEA500C50F1000041EB045141EA23
:10048000050130BD5FEA4C0C404141EB0101013CEC
:1004900028BFB1F5801FE9D291F0000F04BF0146DB
:1004A0000020B1FA81F308BF2033A3F10B03B3F1AD
:1004B00020020CDA0C3208DD02F1140CC2F10C023D
:1004C00001FA0CF021FA02F10CE002F11402D8BF9B
:1004D000C2F1200C01FA02F120FA0CFCDCBF41EA67
:1004E0000C019040E41AA2BF01EB0451294330BD36
:1004F0006FEA04041F3C1CDA0C340EDC04F1140413
:10050000C4F1200220FA04F001FA02F340EA0300E9
:1005100021FA04F345EA030130BDC4F10C04C4F12F
:10052000200220FA02F001FA04F340EA030029460F
:1005300030BD21FA04F0294630BD94F0000F83F459
:10054000801306BF81F480110134013D4EE77FEA3C
:10055000645C18BF7FEA655C29D094EA050F08BF88
:1005600090EA020F05D054EA000C04BF1946104669
:1005700030BD91EA030F1EBF0021002030BD5FEAAD
:10058000545C05D14000494128BF41F0004130BDD5
:1005900014F580043CBF01F5801130BD01F0004529
:1005A00045F0FE4141F470014FF0000030BD7FEA9C
:1005B000645C1ABF194610467FEA655C1CBF0B4697
:1005C000024650EA013406BF52EA033591EA030FAE
:1005D00041F4002130BD00BF90F0000F04BF0021A6
:1005E000704730B54FF4806404F132044FF00005D9
:1005F0004FF0000150E700BF90F0000F04BF002152
:10060000704730B54FF4806404F1320410F00045B7
:1006100048BF40424FF000013EE700BF42004FEAB2
:10062000E2014FEA31014FEA02701FBF12F07F432F
:1006300093F07F4F81F06051704732F07F4208BFE6
:10064000704793F07F4F04BF41F40021704730B5ED
:100650004FF4607401F0004521F000411CE700BF39
:1006600050EA010208BF704730B54FF000050AE0BC
:1006700050EA010208BF704730B511F0004502D5BD
:10068000404261EB41014FF4806404F132045FEABF
:10069000915C3FF4D8AE4FF003025FEADC0C18BF68
:1006A00003325FEADC0C18BF033202EBDC02C2F15A
:1006B000200300FA03FC20FA02F001FA03FE40EAEC
:1006C0000E0021FA02F11444BDE600BF4FF0FF3CDA
:1006D00006E000BF4FF0010C02E000BF4FF0010C3C
:1006E0004DF804CD4FEA410C7FEA6C5C4FEA430CB5
:1006F00018BF7FEA6C5C1BD001B050EA410C0CBF04
:1007000052EA430C91EA030F02BF90EA020F002065
:10071000704710F1000F91EA030F58BF994208BFCC
:1007200090422CBFD8176FEAE37040F00100704789
:100730004FEA410C7FEA6C5C02D150EA013C07D1E0
:100740004FEA430C7FEA6C5CD6D152EA033CD3D02B
:100750005DF8040B704700BF8446104662468C4625
:100760001946634600E000BF01B5FFF7B7FF002858
:1007700048BF10F1000F01BD4DF808EDFFF7F4FF81
:100780000CBF012000205DF808FB00BF4DF808ED0C
:10079000FFF7EAFF34BF012000205DF808FB00BF2F
:1007A0004DF808EDFFF7E0FF94BF012000205DF851
:1007B00008FB00BF4DF808EDFFF7CEFF94BF012006
:1007C00000205DF808FB00BF4DF808EDFFF7C4FFFF
:1007D00034BF012000205DF808FB00BF4FEA410252
:1007E00012F5001215D211D56FF47873B3EB625283
:1007F00012D94FEAC12343F0004343EA505311F0AA
:10080000004F23FA02F018BF404270474FF000003B
:10081000704750EA013005D111F0004008BF6FF079
:10082000004070474FF00000704700BF4A0011D2EF
:1008300012F5001211D20DD56FF47873B3EB62523A
:100840000ED44FEAC12343F0004343EA505323FA46
:1008500002F070474FF00000704750EA013002D1BB
:100860004FF0FF3070474FF00000704753B94AB95E
:10087000002908BF00281CBF4FF0FF314FF0FF30A8
:1008800000F06EB9ADF1080C6DE904CE00F006F889
:10089000DDF804E0DDE9022304B070472DE9F047FC
:1008A000089D0E4604468C46002B40F081808A420B
:1008B000174645D9B2FA82F24AB1C2F1200106FACE
:1008C00002F320FA01F1974041EA030C94404FEA09
:1008D000174E230CBCFBFEF6B9B20EFB16CC43EA56
:1008E0000C4306FB01F0984209D9FB1806F1FF3CC6
:1008F00080F01581984240F21281023E3B441B1A5F
:10090000A4B2B3FBFEF00EFB103344EA034400FB39
:1009100001F1A14209D93C1900F1FF3380F00181B6
:10092000A14240F2FE8002383C44641A40EA06408C
:1009300000211DB1D4400023C5E90043BDE8F08784
:1009400002B9FFDEB2FA82F2002A4FD1CB1B4FEA86
:10095000174E1FFA87F80121B3FBFEFC260C0EFB95
:100960001C3346EA034608FB0CF3B34207D9BE1911
:100970000CF1FF3002D2B34200F2EB808446F61A4B
:10098000A3B2B6FBFEF00EFB106643EA064408FB7A
:1009900000F8A04507D93C1900F1FF3302D2A04569
:1009A00000F2D2801846A4EB080440EA0C40C0E7ED
:1009B0008B4208D9002D00F0AF800021C5E9000668
:1009C0000846BDE8F087B3FA83F1002949D1B34264
:1009D00002D3824200F2BB80841A66EB030301203B
:1009E0009C46002DAAD0C5E9004CA7E7C2F1200320
:1009F0009740D8409140DE404FEA174E08434FEAF7
:100A0000104CB6FBFEF11FFA87F80EFB11664CEA9C
:100A1000064601FB08F3B34204FA02F409D9BE19F1
:100A200001F1FF3C80F08E80B34240F28B800239AE
:100A30003E44F31A86B2B3FBFEF00EFB103346EAD7
:100A4000034600FB08F3B34207D9BE1900F1FF3C8F
:100A500074D2B34272D902383E44F31A40EA0141DB
:100A60007AE7C1F1200703FA01F422FA07F31C43E5
:100A700020FA07F906FA01F34FEA144CFE4049EA5E
:100A800003094FEA1943B6FBFCFE1FFA84F80CFB7E
:100A90001E6643EA06460EFB08FAB24502FA01F268
:100AA00000FA01F308D9A6190EF1FF3048D2B24579
:100AB00046D9AEF1020E2644A6EB0A061FFA89F9C2
:100AC000B6FBFCF00CFB106649EA064600FB08F892
:100AD000B04507D9A61900F1FF3C2DD2B0452BD95E
:100AE0000238264440EA0E40A6EB0806A0FB028925
:100AF0004E45C446CE4618D315D075B3B3EB0C02A1
:100B000066EB0E0606FA07F722FA01F3CE401F4302
:100B1000C5E90076002111E7294628460EE766461A
:100B2000EDE6184601E74345E7D2B8EB020C69EB66
:100B300004040138A646E0E76046D3E760468CE748
:100B40008646B9E7614674E702383C442BE708461D
:100B500047E7ACF1020C3E4411E72946EEE600BF40
:100B6000704700BF00000000F0B5454DD5F80431D6
:100B7000996811F0010189B021D103AA40F6034020
:100B800005F0FCFF0446002876D1039B9B681B7888
:100B900093B93C4A136005F1980318461DF06AFAB0
:100BA000BFF35B8F00F0050053E8002F43E800011E
:100BB0000029F9D1BFF35B8F039818F06FFF03AAE8
:100BC000002141F2030005F0D9FF0446002853D16B
:100BD000039B2D489968082201311DF02AF90398DA
:100BE00018F05CFF214603AA41F2010005F0C6FFA0
:100BF0000446002840D1039883685A7885F8382045
:100C0000D9789A7842EA01226A871A7985F83920D8
:100C1000197ADA7942EA0122AA875A799B7942EA5B
:100C20000323EB8718F03AFF214603AA41F20200A2
:100C300005F0A4FF0446F8B9039B144899684022C4
:100C400001311DF0F6F895F86A30039843F0060379
:100C500085F86A3018F022FF95F844305B061DD401
:100C60000B4B0C490C48C91AC908890141F0010114
:100C70001BF00DFC6FF01204204609B0F0BD00BF60
:100C800000000020C4210020400000204800002077
:100C9000AC1602006C1702007D3E0200214603AA3A
:100CA00042F2030005F06AFF04460028E4D1039BEA
:100CB000A5489968082201311DF0BBF8039818F087
:100CC000EDFE214603AA42F2020005F057FF04465A
:100CD0000028D1D1039B9B68B3F80120A5F8B02070
:100CE00091B221B1DA789948114620F060F9039861
:100CF00018F0D4FE95F8446016F0200600F0FF804E
:100D000095F864301F0711D503AA002142F21C0098
:100D100005F034FF04460028AED10398836853F8E9
:100D2000012F5B68C5E92A2318F0B8FE95F8A030BA
:100D30009E0624D502A90DF1060005F097FF044692
:100D4000002899D1042142F2240005F0BBFD06469B
:100D5000002800F0DB80042108301FF0FBFBBDF809
:100D600006300380BDF8083043802246314642F207
:100D7000240005F003FF044600287FF47DAF95F8BA
:100D8000A0305C0610D503AA002142F22A0005F02B
:100D9000F5FE044600287FF46FAF039883685B7804
:100DA00085F8CC3018F07AFE082142F2010005F0F7
:100DB00089FD0446002800F0A980082108441FF09E
:100DC000C9FB95F8A01011F0400F024640F2022333
:100DD00008BF032388074CBF43F02C0043F00C00EE
:100DE00095F8A1308F0648BF40F0400013F0090F7E
:100DF00095F86A3018BF40F4006003F00603CE0790
:100E000048BF40F01000062B08BF40F4C07000211E
:100E10001DF073F92146002242F2010005F0AEFEFA
:100E2000044600287FF428AF95F8443098061ED475
:100E3000B5F8B010D9B903AA41F2050005F09EFE3D
:100E4000044600287FF418AFB5F8B03063B9039BAF
:100E50009B685A78997842EA0122A5F8B0209A88CE
:100E60003A48114620F0A3F8039818F017FE08211D
:100E700040F6014005F026FD0446002846D0082132
:100E800008441FF067FB95F8A030D907024652D5F9
:100E90002BA1D1E900011DF030F92146002240F6D6
:100EA000014005F06BFE044600287FF4E5AE0146E4
:100EB00002AA4FF6014005F061FE254E254BF61AB9
:100EC000F608B60100284DD0234846F002011BF079
:100ED000DEFAEB79002B7FF4CFAE06F05BFFEB7907
:100EE000002B7FF4C9AE06F0FFFF0446002800F097
:100EF000A6801A4846F001011BF0C9FABCE602219F
:100F000040F66D4005F0DEFC044610B96FF0360483
:100F1000B2E6022108301FF01DFB0123037046706A
:100F20002146324640F66D4005F028FE0446002872
:100F30003FF4E6AEA0E60A484FF00051ABE700BF31
:100F40009088000200800020A0000020B400002053
:100F50006C170200AC160200A13E0200753F0200B1
:100F600010880002029B3B489F68B7F80120032AC3
:100F700096BF3949394951F8221046F003031BF056
:100F8000A7FAB7F80110B7F80320022946F00303C7
:100F90002ED1032A2CD8324951F8221031481BF0A7
:100FA00097FA7A793048032A96BF30492B4951F88D
:100FB0002210CDE90312BA790592B7F807200692FC
:100FC000D7F80920079246F00303052203A91BF076
:100FD000B4FA029818F062FD02AA00214FF602400E
:100FE00005F0CCFD074628B1214846F002016EE726
:100FF0001A49D3E7029B1F489968022201311CF06D
:1010000018FF029818F04AFD95F889305B077FF5C4
:1010100060AF02AA39464FF6034005F0AFFD18B1A4
:10102000154846F0020152E7029B144899680122D4
:1010300011441CF0FEFE029818F030FD49E71048FC
:1010400005F03EFE044600283FF416AE0D4846F07B
:10105000010151E7C53E02001C1C02009F3702003F
:10106000E41B0200DE3E0200F63E02004C1C0200C1
:10107000233F0200890000204C3F0200880000202E
:1010800001000020943F0200F8B5194E9DF8184069
:1010900096F8485015F0010721D196F832C0DFF8D4
:1010A00054E0A6F84210E40004F018040CF0670CB9
:1010B00044EAC01463F34205A2FB0E0144EA0C04A7
:1010C000912303FB021186F8485007A3D3E90023BC
:1010D00086F83240FFF7CAFB70643846F8BD0C272B
:1010E0003846F8BDAFF300808D49FD1A07000000B7
:1010F000643E0020002AE784F8B59DF81840104EA1
:101100000546E400807DEA8404F01804A3FB06672A
:1011100000F06700912244EAC111014302FB03770A
:10112000A97505A3D3E9002330463946FFF79EFB96
:10113000A862F8BDAFF300808D49FD1A07000000DA
:10114000002AE784000000002DE9F04390F83230D7
:10115000044600F1350190F8480003F0F903C0F3AC
:1011600040008DB060F3861384F8323002230B9375
:101170000EF0B0FBB4F8426094F820303C48E461D3
:101180000025A6FB000165F30003912202FB061176
:10119000C4E9055584F8203033A3D3E90023FFF7D1
:1011A00065FB636C656006460933A6F13102934224
:1011B0004FF0310132BFE360E2606564A5602160F9
:1011C0000EF086FB2B4D0694B4F842802A49DFF8D6
:1011D000B0C02A4A0746651B2548AD08A1FB053566
:1011E000A8FB0001912303FB0811E36804930DF1B0
:1011F0002C08CDF81CC005924FF00A0C1AA3D3E9B5
:101200000023CDF80CC0CDF82080FFF72FFB10464F
:1012100019464FF47A720023FFF728FB6D08023558
:101220000021EDB22A46CDE901603B460091084617
:1012300003210EF09BFA414611F0C4F8054660B94F
:1012400094F8483043F0010384F84830022015F048
:10125000BDFA28460DB0BDE8F0830C200DB0BDE806
:10126000F08300BFAFF300808D49FD1A0700000036
:10127000002AE784643E0020BD86F21AB9260100E8
:10128000B9230100000000002DE9F04F858D4FF6D5
:10129000FF739D428DB004468A46914600F0278137
:1012A00003F0C2FDA24BA34AA0FB0301C30B43EA18
:1012B0004143A149A148A2FB03230A689B0C40F8C3
:1012C0002530002A7DD101230B609D4F9D4B3A684C
:1012D0001968DFF8A4B28A4200F0F480DBF80060FD
:1012E0001A60032E26D9984F984ACBF8005052F82E
:1012F0002630013342F8263003F096FD94F8C060A2
:1013000094F8BF3047F8350007EBC50200219E4234
:10131000516061D09B1B03F00303022B6ED094F845
:10132000052194F804319A4240F0838000200DB0EA
:10133000BDE8F08F864B844F7D4903EBC60307EB76
:10134000C60E1A68DEF800C05868DEF80430B2EB4A
:101350000C0260EB0300A2FB0123CDE90A2301FB91
:1013600000330B93DDE90A017A4A4FEAD03848EAA4
:1013700041489045B8D96F4BA3FB08384FEA9848CD
:101380004046FFF729F90B467349024651F82600FB
:10139000CDE90A23FFF720F9704B0022FEF7B0FEDB
:1013A00002460B46DDE90A01FFF7FAF900289BD057
:1013B0006B4951F82630002B40F0078441F8268015
:1013C00092E7012A00F0A280022A7FF47EAF022D6C
:1013D00004BF03230B6078E794F82A2112F0010779
:1013E0009DD194F8DD1094F8DC00884200F0FE8373
:1013F000B31E012284F8C03084F8C12094F8703103
:1014000094F871219A4206D094F8722102F00601F4
:10141000042900F0308494F8C1506B1E052B00F2B3
:10142000C583DFE813F05F012F01AB00C303850321
:10143000C9024C480CF036FD58B394F8043184F8D6
:1014400005310379022243F0030342710371C27133
:10145000D4F8883194F80621027233B394F82A2123
:10146000910722D494F88321D2071ED4D4F8942172
:10147000934204BF1A68C4F89421D4F88C21C2B9ED
:101480001A68026018600368C4E963000BB9C4F805
:101490009801B4F8B00000287FF448AFB4F8AA303F
:1014A000012B39D9A4F8B03040E7D4F88C21002AB8
:1014B00038D0D4F890311A6802601860C4F89001EE
:1014C0000368E3E703F0B0FCDBF80060204B26493B
:1014D00043F8360003EBC603002051F8262058607D
:1014E0003B680132013341F826203B60F9E61F4A90
:1014F0001F49204840F271331AF009FD404080F343
:1015000011884FF0030002DFA58DC9E6012D7FF49D
:10151000DCAE02230B60D8E60133A4F8B0300DB086
:10152000BDE8F08F0360C4E96200C4F89001ADE744
:1015300000CA9A3B83DE1B439C620020C03E002011
:10154000AC04002094620020B01A002078550020DE
:10155000D01A00203F420F00F43E00200000F43F6C
:10156000E03E0020BC5F0020D03E0020EC230200C3
:1015700010250200A41F02009862002094F8C430D5
:1015800013F0030600F0EF8494F93D30002BBFF612
:10159000C6AE012E7FF4C3AE51480CF083FC054665
:1015A00000283FF4BCAE03790D2243F00303042767
:1015B00000F1080603714271C7710C21304616F024
:1015C000A5F83146082204F1CE001CF032FC3A4660
:1015D00005F1100104F180001CF02BFCD4F88831D7
:1015E000002B01F01B8194F82A21970701F1168145
:1015F00094F88321D60701F11181D4F89421934204
:1016000004BF1A68C4F89421D4F88C21002A01F090
:101610006283D4F890311A682A601D60C4F8905132
:101620002B68002B01F0E88210F07EFE05460028B2
:101630003FF475AE2B7FA28DEA8043F003030226B0
:10164000172103222B776977EA7704F22D110822FC
:101650002E7105F120001CF0ECFB94F82B3185F87D
:10166000283094F82C3185F829302868294610F064
:1016700027FE10F02FFE94F8C43066F3010384F8BF
:10168000C4304CE6E38E618E94F8C4200B44994438
:10169000D0071FFA89F900F1BB83B4F8CA30A9EB6F
:1016A000030919F4004F7FF43AAE94F8BF3084F880
:1016B000C03004F13805052204F1C50128461CF0AC
:1016C000B8FB284605210CF0BBFD94F83D30012203
:1016D00060F3050384F83D3084F89C211FE600BFC9
:1016E000BC5F0020A64F3B68002B00F09784E58E7E
:1016F000628E94F8DE3015444D4413F00303ADB20E
:1017000040F00A83B4F8C480A5EB08021FFA82FBFC
:1017100012043FF504AE94F8481194F8492194F866
:10172000DC0084F8DD008A4294F8BF0084F8C00031
:1017300009D094F84A2102F00702052A04BF84F870
:101740004911A4F8B0303B68D4F8D8609C4204BF7B
:1017500000233B60002E00F034853068002800F044
:101760003085B4F8E030E28D4168C4F8D810934277
:10177000B4F8E210B4F8E47000F00A86A28DF280AA
:101780004FF00B0C0022F3833184778486F804C079
:101790003277314610F094FD10F09CFDE38DB4F8E3
:1017A000E06013FB0BF39BB2B3FBF6F116FB01F207
:1017B00092B293428FB280F0E684D31A714840F21D
:1017C000E24202FB03F3A3FB00016BA3D3E9002376
:1017D000FFF74CF820F07F408244638EA8EB0505AC
:1017E000994494F93D302F444F4440F2E248002B95
:1017F000678608FB06F5C0F21A86624FD4F8E80047
:101800005DA3D3E90023A0FB0701FFF72FF884466F
:10181000B4F8580108FB00F057A3D3E90023A0FB5C
:1018200007012CF07F47FFF721F85749574B584ADB
:10183000096819600023013782441370A4F85831F5
:10184000B4F8E420B4F8E200524BE68542F2107698
:1018500006FB0252504920862B44861D013AB3FBF9
:10186000F5F3B2FBF5F2A4F8AA209AB2B2422944E9
:10187000A4F8B620B1FBF5F1A4F8AE1002DD121AFF
:10188000063A92B294F8DE30A4F8B2205E0744BF64
:101890000023A4F8AC300221012017F07DFE0022C5
:1018A0000221064601200CF0A1FB3C494FF4D07206
:1018B00020460CF02DFBC21C5FFA82FB384B0094D3
:1018C0005A46012100200DF0BDFF30F002030CD07C
:1018D000344A3549354840F635531AF018FB404034
:1018E00080F311884FF0030002DF2649E368304A95
:1018F000DFF8C0C00493A5FB0189079200251EA351
:10190000D3E9002340464946CDF814C00894069414
:101910000395FEF7ABFF104619464FF47A72002389
:10192000FEF7A4FF14A3D3E900230446494640462A
:101930000294FEF79BFF53460190009728465A46B3
:1019400001210DF013FF30F002030CD0154A1649A7
:10195000164840F64F531AF0DAFA404080F31188E7
:101960004FF0030002DF002E40F02B856FF04700A0
:10197000DDE400BFAFF300808D49FD1A07000000D1
:101980007455002000CA9A3BFC0500200006002088
:10199000A57700207FC3C901FF596202F44E0020E1
:1019A000052D0100EC23020040250200A41F0200C7
:1019B000AD2C01002D5C0100E38E628E94F8C450C2
:1019C00013449944EE071FFA89F9AB4600F16F8280
:1019D000B4F8C630A9EB030919F4004F7FF49FACAB
:1019E00094F8492094F8BE3094F848A094F8BF10B9
:1019F000B4F84680B4F8BC6084F8C01002F0070266
:101A0000DF070A920AF0070AD4F8F42040F1CE83E7
:101A1000100540F1CB8344F290294E4528BF4E4635
:101A2000B6F5A47F38BF4FF4A47615F01C0F40F034
:101A3000D184B4F8447015F0E00F0CD094F849301C
:101A400094F84200690961F3020384F849304A4678
:101A500010F0EEFF804694F8843194F84820D4F8D2
:101A6000D850C3F3C00363F3C30284F84820002DA9
:101A700000F0CB842868002800F0C78494F8482040
:101A800094F849304168C4F8D8101BF0020FC2F333
:101A9000020CC3F3020102F0070203F0070302D1B4
:101AA000924500F0DE86A38DEB800F220023A977FC
:101AB00085F81DC02A712B77294610F001FCD4F857
:101AC000D850002D00F039852868002800F03585B1
:101AD000B4F844304268C4F8D820BB4208D39E42D0
:101AE00006D3B4F84630434502D3994580F0CE86FC
:101AF000A4F84470A4F846802B7FA28DEA8043F0BE
:101B000003030221092229712B776A77B4F8423046
:101B1000B4F840202B841523AA84EB772946A5F836
:101B20002280EF8410F0CCFB10F0D4FBFFF7F7BB62
:101B3000B0480CF0B7F900283FF4F1AB94F8BF308F
:101B400084F8C030012302794371D4F8883142F01F
:101B5000030212210271C171002B00F0098394F875
:101B60002A21920700F1048394F88321D70700F11A
:101B7000FF82D4F89421934204BF1A68C4F89421D8
:101B8000D4F88C21002A01F04F80D4F890311A68E3
:101B900002601860C4F890010368002B00F0DD8437
:101BA000B4F8AE30A4F8B030FFF7B9BB924A93490D
:101BB000934840F21A431AF0AAF9404080F3118882
:101BC0004FF0030002DFFFF7AABB8E4A8E4812686F
:101BD000C2F1640C03FB0CF3323308FB0233A0FBAD
:101BE00003235B0941F82630FFF77EBB94F8F10030
:101BF00094F8F050A84255D194F8FD0094F8FC50A8
:101C0000A84200F0EE82401BC1077FF588AB94F834
:101C1000FE30DA0740F133879D0740F1218710F04D
:101C200083FB0146002871D094F8FC3084F8FD3025
:101C3000037FA28DC28043F003030B7702200622AC
:101C40000C2308714A77CB7794F8FF00B4F802317F
:101C5000B4F80021A1F8212081F82000A1F8233058
:101C6000086810F02DFB10F035FB94F8BF3094F8A5
:101C7000C060FFF74FBB02F00701062901F268813F
:101C800001A050F821F000BFA320000017140000AD
:101C90001714000017140000232000002320000068
:101CA00017140000401BC6077FF539AB94F8BE102F
:101CB00011F0010500F0E88310F036FB054628B36B
:101CC00094F8F03084F8F130037FA28DC28043F0A5
:101CD00003030922022039462B7728716A77EA77B5
:101CE00005F1200008221CF0CFF8D4F8F83085F870
:101CF0002030C3F307221B0C85F8212085F8223001
:101D00002946086810F0DCFA10F0E4FA94F8BF30C5
:101D100094F8C060FFF7FEBA012010F0E1FA074620
:101D200000283FF4FCAA33480CF0BCF80646002813
:101D30003FF4F5AA10F0F8FA238E3A6894F8DE0022
:101D40002B44063399B2D4F8D83053603279A4F8D2
:101D5000C4106FF301000C2384F8DE00C4F8D870BF
:101D600042F003027371D4F8E830D4F88801274DAB
:101D700032710022F271A5FB032394F8EC50B4F801
:101D8000E0203572C3F38F23B4F8E250A6F80B209D
:101D9000B4F8E420A6F80F20A6F80D50A6F811100C
:101DA000A6F80930002800F0258394F82A319D0711
:101DB00000F1208394F88331D90700F11B83D4F814
:101DC0009431984204BF0368C4F89431D4F88C313C
:101DD000002B00F03F87D4F890311A6832601E6003
:101DE000C4F89061306800287FF499AAC4F898611B
:101DF000FFF795BABC5F0020EC230200142002001C
:101E0000A41F0200B00400201F85EB515917B7D161
:101E1000D6480CF047F8054600283FF480AA238EE8
:101E2000027994F8C410994409F10603A4F8CA3061
:101E30006FF30001012342F00302082084F8C4106C
:101E40002A716871EB71052204F1C50128181BF095
:101E5000F0FFD4F88831B4F8CA20A5F80D20002B83
:101E600000F08A8394F82A21910700F1858394F881
:101E70008321D20700F18083D4F89421934204BFD8
:101E80001A68C4F89421D4F88C21002A00F0138732
:101E9000D4F890311A682A601D60C4F890512B68FC
:101EA000002B7FF43CAAC4F89851FFF738BA0220FF
:101EB00010F016FA054600283FF431AAAB480BF0A3
:101EC000F1FF074600283FF42AAA94F8C4306FF3C4
:101ED0000003C3F38206C3F34212164384F8C430EE
:101EE000DBB240F09E8594F8BF20A4F8C660980746
:101EF00084F8C02000F149863346314605227A71C4
:101F00003E723A797B72D4F88831798142F00302CB
:101F100018213A71F971002B00F0238394F82A21DB
:101F2000910700F11E8394F88321D20700F11983F1
:101F3000D4F89421934204BF1A68C4F89421D4F8C9
:101F40008C21002A00F08E86D4F890311A683A600D
:101F50001F60C4F890713B68002B7FF4E0A9C4F8BF
:101F60009871FFF7DCB981480BF09CFF0746002809
:101F70003FF4D5A994F93D30002B00F1040880F21C
:101F8000ED8394F86230190700F1BE8594F8C560BE
:101F9000002E00F08484037994F8BE2043F00303FC
:101FA000D207037140F1DD85D4F8F4305B0740F1CE
:101FB000D885112203234672C27103727D71D4F851
:101FC0008831002284F8C520002B00F0B28494F8F8
:101FD0002A21960700F1AD8494F88321D50700F1FA
:101FE000A884D4F89421934204BF1A68C4F89421B9
:101FF000D4F88C21002A00F09786D4F890311A6822
:102000003A601F60C4F890713B68002B00F00585B2
:1020100094F8BF3084F8C030FFF781B93C60FFF717
:1020200066BB02F00702B4F874C1B4F87811B4F8D2
:102030007671B4F87A61A4F842C0042AA4F8461074
:1020400000F0978494F87231062262F3020384F858
:102050007231D4F8D850002D00F077842868002819
:1020600000F073842B7F4268B4F82CE0C4F8D820C9
:1020700043F0030302222B774FF009081523A5F83C
:1020800006E0A5F820C069842A71EB772946AF8461
:10209000EE8485F81D8010F013F910F01BF9FFF79E
:1020A000BAB932480BF0FEFE00283FF4B4A994F808
:1020B0007221B4F87611B4F87A31A4F8BA10012577
:1020C000A4F8BC3065F30202092584F87221027974
:1020D000457194F8BE50818142F003020021D4F88A
:1020E000F470027114266FF004024172E907C671A0
:1020F000027240F11D833A0540F11A8344F29022A6
:10210000934228BF1346B3F5A47F38BF4FF4A4739E
:10211000D4F888114281C381002900F0388294F8F4
:102120002A319F0700F1338294F88331DE0700F1F2
:102130002E82D4F89431994204BF0B68C4F89431CC
:10214000D4F88C31002B00F0BE85D4F890311A6899
:1021500002601860C4F890010168002900F007854A
:10216000B4F8AE30A4F8B030FFF755B9BC5F00202A
:10217000D4F88C21002A7FF408AD0360C4E9620022
:10218000C4F8900109E506FB113340F2E242B4487D
:102190009BB202FB03F3A3FB0001AFA3D3E900232F
:1021A000FEF764FBAAEB000AFFF717BB40F64809ED
:1021B0004E4528BF4E46B6F5A47F38BF4FF4A476EF
:1021C00033E4A84AA849A94840F68E4319F09FFE77
:1021D000404080F311884FF0030002DF3068FFF7C2
:1021E000C0BA94F8495194F84801854200F0DA8168
:1021F0009F4F3868002800F0E88484427FF48FA85D
:1022000094F84A0100F00700052800F29B8601A51A
:1022100055F820F00B2300007D2200002D22000045
:1022200015130000151300001513000090073FF56B
:1022300076A810F079F8014600283FF467AD037FD7
:1022400094F84A21032060F30202034384F84A21F0
:10225000A08D0B77022518230D714B77B4F84C2114
:10226000B4F84E31C880B4F850010A84B4F8522151
:102270004B840F238884CA84CB7742E57D487E4A0D
:102280007E4B94F84B510068106000261E70002DA4
:1022900040F0518594F93D30002BC0F27A8594F8D6
:1022A0004A3194F85421C4F8E850052060F3020341
:1022B000012084F84A3184F8EC00002A00F03086CE
:1022C000B4F84C31B3FBF2F3034413FB02F39BB2BB
:1022D00094F84A2194F8DE00A4F8E030C2F3C00379
:1022E0009B0020F0070243F002031343B4F85001AF
:1022F000B4F8522184F8DE30013984F8DD10A4F8F6
:10230000E200A4F8E420FFF70AB85D48E58E668E87
:102310000BF0C8FD014600283FF4F8AC94F84A21C0
:102320000379042060F3020284F84A2143F0030396
:1023300018220B714A71B4F84C01AB190022B4F8A1
:102340004E51B4F8526108814B44B4F850010A74FC
:102350004D818881B4F85851A1F811300F204FF009
:10236000FF33C8714B758B75CB750B764B768B76BF
:10237000CB760B774B778B77CE81A1F81350204625
:1023800010F0C0FBB4F8AE303C60A4F8B030BDE44F
:10239000228E8A427FF4F2A940F2E24202FB03FE5F
:1023A00042F21072B4F8AAC002FB07E2013AB2FB93
:1023B000FEF292B294457FF4E1A903233371FFF753
:1023C000E8B90122104602210BF010FE6FF0470021
:1023D000FEF7ADBF94F8483094F84000C5F3820191
:1023E00061F3020384F84830324610F021FB0746BF
:1023F000FFF721BBD4F88C31002B7FF4ECAC3060BC
:10240000C4E96266C4F89061EDE4164A16491748BB
:1024100041F20D2319F07BFD404080F311884FF00D
:10242000030002DF286894F8C4B0FFF727BB0D4A09
:1024300014490E4840F6065319F069FD404080F3F8
:1024400011884FF0030002DF0027B4F8E060FFF7C7
:10245000F7B900BFAFF300808D49FD1A07000000F7
:1024600000CA9A3BEC2302002C250200A41F0200A4
:1024700074550020FC05002000060020A5770020F0
:10248000BC5F002014200200AF480BF00BFD064695
:1024900000283FF43BAC94F8F130AC4AC4F8F42087
:1024A000013B092284F8F130427194F93D2003790F
:1024B000002AACBF08220E2243F00303C271082297
:1024C0000371294610441BF0DFFCD4F8F43033725A
:1024D000C3F307221B0C7272B372D4F88831002B3D
:1024E00000F0A88194F82A21950700F1A38194F8BF
:1024F0008321D00700F19E81D4F89421934204BF38
:102500001A68C4F89421D4F88C21002A00F00484BD
:10251000D4F890311A6832601E60C4F89061336854
:10252000002B00F06D83B4F8AE30A4F8B03094F80E
:10253000C06094F8BF30FEF7EDBE854A85498648F5
:1025400041F2392319F0E3FC404080F311884FF049
:10255000030002DF2868FFF7BBBAC4F89801FFF751
:102560001FBBD4F88C21002A7FF4EEAC3B60C4E999
:102570006277C4F89071EFE4D4F88C21002A7FF4DC
:1025800087AC2B60C4E96255C4F8905188E4D4F854
:102590008C31002B7FF4D9AD0160C4E96200C4F82E
:1025A0009001DAE594F8700194F87121824200F00C
:1025B000EB8194F8721101F00702062A00F2C5843B
:1025C00001A555F822F000BF6D260000151300008C
:1025D0001513000015130000E5250000E525000097
:1025E00015130000B4F87431A4F8423001F0070369
:1025F000B4F87821B4F87671B4F87A61A4F846207A
:10260000042B00F07F830B46062262F3020384F85A
:102610007231D4F8D850002D00F065832868002866
:1026200000F061832B7F4268B4F82CC0C4F8D82036
:1026300043F003032B77022209236B772A71B4F846
:102640004210B4F846206A841523EB77A5F806C03B
:102650002984EE842946AF840FF032FE0FF03AFE53
:1026600094F8BF3094F8C060FEF754BE36480BF0C3
:1026700019FC00283FF44AAB94F87221B4F87611A3
:10268000B4F87A31A4F8BA100125A4F8BC3065F387
:10269000020284F8722109250279457194F8BE502E
:1026A000818142F0030214210271D4F8F420C17137
:1026B0006FF0040100260172E907467240F1F082D2
:1026C000170540F1ED8244F29022934228BF134651
:1026D000B3F5A47F38BF4FF4A473D4F888114281B6
:1026E000C381002900F0C68294F82A319E0700F1C8
:1026F000C18294F88331DD0700F1BC82D4F89431B3
:10270000994204BF0B68C4F89431D4F88C31002B83
:1027100000F00A84D4F890311A6802601860C4F896
:1027200090010368002B7FF4FEAEC4F89801FAE62E
:1027300040F64802934228BF1346B3F5A47F38BF42
:102740004FF4A473E4E400BFBC5F0020FF48010025
:10275000EC2302002C250200A41F020004F16305F3
:102760002B46324604F1C60104F2351016F08EF9FC
:102770002946102204F184001BF05BFB082204F1BF
:102780007C0104F19D001BF054FB94F87B0094F84D
:102790009C2094F8623084F8736043F0080366F379
:1027A000000042F0010284F87B0084F8623084F873
:1027B000746084F8756084F8766084F8776084F8D3
:1027C000786084F8796084F87A60C4F8946041464F
:1027D000C4F8986084F89C20204610F063FBD4F87D
:1027E000883193B394F82A2195072ED494F8832145
:1027F000D0072AD4D4F89421934204BF1A68C4F8AD
:102800009421D4F88C21002A7FF4F7AB1A683A603F
:102810001F603B68C4E96377FFF7F7BBD4F88C21EE
:10282000002A7EF4F6AE2B60C4E96255C4F89051DC
:10283000FEF7F7BED4F88C21002A7FF469AE33602E
:10284000C4E96266C4F890616AE6D4F88C21002A73
:102850007FF4D3AB3B60C4E96277C4F89071FFF7B3
:10286000D4BB0A9A9A427FF41EA903232B712946EE
:102870000FF026FDD4F8D850002D00F07B82286898
:10288000002800F077824368C4F8D83003232B7106
:1028900029460FF015FD0FF01DFDFEF740BD04F1B8
:1028A00063052B46324604F1C60104F2351016F0DA
:1028B000EDF82946102204F184001BF0BAFA082230
:1028C00004F17C0104F19D001BF0B3FA94F87B2025
:1028D00094F89C1094F8623084F8736042F001021E
:1028E00066F3000143F00803012084F87B2084F89C
:1028F0009C1084F8623084F8746084F8756084F801
:10290000766084F8776084F8786084F8796084F879
:102910007A60C4F89460C4F898603A797871D4F811
:10292000883142F0030205213A71F971002B7FF4DE
:102930004EABD4F88C21002A7FF45FAB3B60C4E936
:102940006277C4F89071FFF75FBBD04AD049D14895
:1029500041F2DD0319F0DBFA404080F311884FF0BB
:10296000030002DF2868B4F842C0B4F84610FFF74D
:1029700079BBB4F87C21002A40F0458184F871319C
:10298000A4F8B020FFF765BB94F8803194F881215A
:102990009A423EF4C4AC94F8822102F00301032968
:1029A00000F0468200297EF4BAACBB480BF07AFAFC
:1029B000014600283FF4AAA994F8823194F88421B2
:1029C00094F88351012060F30103C3F3820060F3A4
:1029D0000202C3F3421060F30612C5F34005087902
:1029E00084F8823165F3C30284F8842140F0030047
:1029F000C3F382061622C3F3421303254B720871F8
:102A0000CA710E724D710022204610F07BF8B4F8A6
:102A1000AE30A4F8B030FFF779B9C4F89871FFF779
:102A2000F7BA238E994409F10603A4F8C6300FF0D3
:102A30007BFC2B68D4F8D8205A60C4F8D8500FF02B
:102A400073FC0368D4F8D8205A6094F8C430B4F802
:102A5000C610C4F8D800C3F382065B09FFF74EBA6C
:102A600040F6F963894A8D498A4819F050FA404086
:102A700080F311884FF0030002DFFFF747B9864863
:102A80000BF010FA00283FF441A994F8FD2094F8C7
:102A9000FE30013A84F8FD20027943F0010306215B
:102AA00084F8FE3042F003024171D4F8883102719B
:102AB0000B216FF00E020C250172427205214FF0BE
:102AC000FF32C5718172C2720273002B00F0B480B4
:102AD00094F82A21970700F1AF8094F88321D60754
:102AE00000F1AA80D4F89421934204BF1A68C4F874
:102AF0009421D4F88C21002A7FF40CAE1A6802606D
:102B00001860C4E963000CE64146204610F0CAF99B
:102B1000D4F888317BB394F82A2190072BD494F809
:102B20008321D10727D4D4F89421934204BF1A6893
:102B3000C4F89421D4F88C21002A00F07381D4F8D1
:102B400090311A683A601F60C4F890713B68002B9E
:102B50007DD094F82A3123F0030384F82A31FFF75B
:102B600057BA0D233E72FB710225FFF727BAC4F84E
:102B70009801FFF7F5BAD4F88C21002ADFD13B6029
:102B8000C4E96277C4F89071E0E70FF0CDFB0F2342
:102B9000A28D2E772B7194F848302868EA80C3F311
:102BA00002036B7794F84930C3F30203AB772946ED
:102BB0000FF086FB0FF08EFB94F8C430B4F8C6100B
:102BC000C3F382065B09FFF799B994F84A3103F021
:102BD0000703052B00F2B68101A050F823F000BFD7
:102BE0000B2300007D2200002D2200001F13000097
:102BF0001F1300001F130000C4F89851FEF714BD06
:102C0000C4F898618FE494F87201B4F87E51A4F886
:102C10007621002363F3020084F87201A4F87C316A
:102C2000A4F87A51FFF715BA1A68026018600368B1
:102C3000C4E96300FEF7B1BFD4F88C21002A7FF409
:102C400069AD0360C4E96200C4F8900169E5C4F8A5
:102C500098717EE70368336006603068C4E9636694
:102C6000FFF7C1B81A683A601F603B68C4E9637730
:102C7000FFF772B9D4F88C31002B7FF44BAD0160B3
:102C8000C4E96200C4F890014BE500BFEC230200E8
:102C90002C250200A41F0200BC5F002014200200AB
:102CA00040F64802934228BF1346B3F5A47F38BFCD
:102CB0004FF4A47311E51A682A601D602B68C4E9FB
:102CC0006355FFF7EDB80B68036008600168C4E95D
:102CD0006300FFF742BA1A682A601D602B68C4E9D6
:102CE0006355FEF79EBCA24AA249A34841F2DD0308
:102CF00019F00DF9404080F311884FF0030002DF16
:102D000028688FE4B4F87C21002A40F0D38084F84E
:102D10007101A4F8B0207CE41A6832601E60336848
:102D2000C4E96366FFF7FCBB1A683A601F60C4E938
:102D30006377FFF769B991480BF0B4F801460028B2
:102D40003EF4E4AF037943F003030B711120032237
:102D50000F23C8714A710B7294F84B314B72324693
:102D600020460FF0CFFE94F848313E6084F8493198
:102D7000FEF7CCBF7E4A7F497F4841F21C2319F001
:102D8000C6F8404080F311884FF0030002DF286846
:102D900079E57A480BF086F8014600283EF4B6AF94
:102DA0000379182243F0030303714271B4F84C21F4
:102DB000B4F84E31B4F850010A81B4F852214B8175
:102DC00010238881CA81CB7194F854310B74B4F804
:102DD0005631B4F85801B4F85A21A1F81130B4F8BA
:102DE0005C31A1F81300B4F85E01A1F81520B4F825
:102DF0006021A1F81730B4F86231A1F81D30A1F8B4
:102E00001900A1F81B2020462A460FF07BFE94F8FB
:102E1000483184F8493194F8C06094F8BF303D607F
:102E2000FEF778BA1A683A601F60C4E963778DE6E6
:102E300084F88131C2F38203120753D594F88231AA
:102E4000022262F3840384F8823194F882315D06B1
:102E50004FEA53123ED5022262F3471384F88231BF
:102E600094F8823194F8485094F8490094F88321FA
:102E7000C3F3820105F0070500F00700C2F38002EA
:102E80008D4208BF00215200B0EB531F42F00102F7
:102E90004FEA531308BF002342EA431242EA810279
:102EA000B31E062184F8C03084F8C42084F8C11011
:102EB000FEF7B1BA00200B4660F30203A4F87621B6
:102EC000B4F87E2184F87231A4F87C01A4F87A2148
:102ED000FFF79FBBD0070FD5012262F3471384F899
:102EE0008231BDE7DF0710D594F88231012262F309
:102EF000840384F88231A8E712F0040218BF042288
:102F000062F3471384F88231AAE713F0040312D066
:102F100094F88231042262F3840384F8823194E7C6
:102F2000B4F84E31FFF7D4B90B6803600860C4E908
:102F30006300FFF7F6BB94F8822163F3840284F800
:102F4000822182E741F209038CE541F2051389E50C
:102F5000074A0B49084841F2051318F0D8FF4040D2
:102F600080F311884FF0030002DFFEF754BA00BF70
:102F7000EC2302002C250200A41F0200BC5F0020ED
:102F800014200200000000002DE9F04F17461268DF
:102F900091F81CC0D2F800900C464FF0000A91B096
:102FA000C2F808A01D46638EADF82C302431CCF356
:102FB000C013062280460EA88DF834302E681AF011
:102FC00038FF237FA4F81CA0797C97F812A0C3F3E4
:102FD000401211F001018DF830200A9204F12B000B
:102FE0004FF0060200F0F38004F11E011AF021FFF9
:102FF000BAF1FF0F04F1250304F11F0B00F0F1807B
:103000005A46504604F11E010D9313F039FBA27F7E
:103010000D9B0232A2770EA9184606221AF009FF6C
:103020006B8AAA8A6386B9F83030E386A28615F0E7
:10303000ADF884F83800304610F084F80346288252
:103040002146E38040467C680FF03AF92B8AE38002
:103050000E2323710A9B2068002B00F0B48095F8A2
:1030600009E02B7A95F80BC0A97A95F8212041EA5E
:103070000C2143EA0E234B4042F0400201216B84B5
:1030800085F82120217721460FF01AF90FF022F957
:1030900095F82C00DFF88881C0F3C00100F007002C
:1030A00014F080FC00248346312300F25240336048
:1030B000C6E9014452A3D3E90023A0FB0801FDF7B0
:1030C000D5FBFA68BDF82C106B8A40F2E24A0AFB85
:1030D00001A520F07F40A2F59672F0600221154410
:1030E000012022460AFB03FA0AF080FF48460FF04F
:1030F0000DFC821CD2B2444B0092012120460CF000
:10310000A1FB012211462346009420460CF09AFBB5
:10311000304610F017F806963C4A3D4BBF680792C0
:1031200040F2CA2108910593F3680493A5EB0B05BF
:103130008AFB08AB00F1030C31A3D3E9002350460E
:1031400059465FFA8CF60394FDF790FB104619463A
:103150004FF47A720023FDF789FB29A3D3E90023FA
:10316000844659465046CDF808C0FDF77FFB24A39E
:10317000D3E900238446A5FB0801CDF804C0FDF780
:1031800075FB313F20F07F403B46009032462046A1
:1031900001210CF0EBFA30F002030CD01D4A1E495D
:1031A0001E4840F2CB2318F0B2FE404080F3118855
:1031B0004FF0030002DF0122104602210AF016FF41
:1031C00011B0BDE8F08F9DF8303023775BE71AF03F
:1031D0005BFEBAF1FF0F04F1250304F11F0B7FF42E
:1031E0000FAF1846062200211AF04EFE9DF834302B
:1031F000A3770EA9584606221AF01BFE10E700BF5F
:103200008D49FD1A07000000F95B0100FD5B01001C
:103210002D5C01001026020040250200A41F0200C0
:1032200000CA9A3B000000002DE9F84F044615F053
:10323000C9FE10F0FF0F09D114F0C8FB2146CC489D
:1032400015F086FDBDE8F84F15F08EBE15F0DAFEDC
:10325000C6B215F061FFC5B215F068FF804616F0E2
:1032600067F9C7B216F052F9814615F01DFF824684
:1032700014F0ACFB002D40F09A80002F40F0AA80A3
:103280004FF0FF08002ED9D0A37D190700F19880D8
:10329000002D40F03A8101200FF01CF9054600286E
:1032A00000F04D81A3685FFA8AFA002B00F0C3801A
:1032B000A37D1A0740F13581287F10F00F0340F0FD
:1032C0008F806B7F252B00F2FD8004200FF002F928
:1032D0000028B3D016F034F8A36A064643B9E28C4E
:1032E00040F2712303FB02F3B0FBF3F203FB12067F
:1032F0002368A048DB680722A3FB000102FB03113F
:1033000099A3D3E90023FDF7B1FAA0F24233B34207
:1033100094D315F0A3FED4F8089015F081FE2B7F0E
:103320000278C3F38013DB0102F0500243F025035F
:1033300013432222037042700646404613F054FEA7
:10334000E37DDA07834606F1020040F17181BBF1AB
:10335000000F00F06D81337843F040033370062294
:1033600059461AF066FD062205F11E0106F1080015
:103370001AF05FFD042209F1080106F10E001AF0AF
:1033800058FD032209F10C0106F112001AF051FD5B
:103390000123737515F0D4FF8246484612F0B4FB42
:1033A00083B2B3F5006F40F26681BDE8F88FA07D6F
:1033B0005FFA88F1C0F3C00013F034FE804661E785
:1033C000002D7FF468AF404613F0E8FE00287FF43C
:1033D00062AF33E75FFA89F013F08EFE804651E763
:1033E000012B49D16B7F0C2B7FF428AF05F124060C
:1033F000C0093146424613F041FF00287FF465AF13
:10340000E37DDB0700F1CE81A37D287FC3F380122B
:10341000B2EBD01F00F0EF81C3F3C10398070AD5C8
:1034200095F91C30002B06DA95F8293003F0C0031B
:10343000402B3FF44AAF287F10F00F031CD16B7F65
:10344000252B3FF6FBAE94F91620002AC0F29A8095
:10345000252B98BF002635D8002B3FF4EFAEA3688C
:10346000002B7FF4EBAE002F14BF4146FF21324604
:10347000504614F0CFFDE1E6062B6ED0022B00F093
:10348000D580012B1ED16B7F0C2B7FF4D7AE05F1BD
:103490002409C0094946424613F0F0FE064688BB9F
:1034A000A37D287FC3F38012B2EBD01F00F09A8176
:1034B000C3F3C103980704D595F91C30002BC0F263
:1034C0008781287F00F00F0004287FF4B7AE6B7F60
:1034D000252B3FF6B3AEA37DDA077FF5AFAE15F02F
:1034E0009FFD2B7F0278C3F38013B3EBD21F7FF4D1
:1034F000A5AE0830062205F11E011AF08AFC00284C
:103500007FF49CAE6B7F0026A6E74146384613F059
:1035100081FE00287FF4BFAEA37D1B077FF58EAE32
:10352000B9E6B8F1FF0F00F09080237EA3EB08030B
:10353000B3FA83F35B09002B7FF4BEAE7BE70E4A40
:103540000E490F4840F2962318F0E1FC404080F30A
:1035500011884FF0030002DFA4E66B7F252B7FF676
:1035600072AFAFE7AFF3008000CA9A3B00000000E3
:10357000717D01008D49FD1AC02902000C2A02004C
:10358000A41F0200A268002A7FF462AF962015F003
:10359000E3FD002015F048FD002F14BF4146FF2138
:1035A0005046002214F036FD00287FF447AE15F097
:1035B00037FD2B7F0278C3F38013DB01064602F050
:1035C000700243F0030313430C22337040467270C1
:1035D00013F00AFDE37DDF07014640F1EA80002891
:1035E00000F0E7803378304643F0400300F8023BB8
:1035F00006221AF01EFC05F11E01062206F1080043
:103600001AF017FC304615F089FC15F0D1FC0028A3
:1036100040F0FC8015F08CFEA37D844843F001034C
:10362000A3752146BDE8F84F15F092BB6B7F0FE7FD
:10363000A37D3278C3F3801363F38612327004F1F2
:10364000190106221AF0F5FB8DE6287FC3F340131B
:10365000C0F3801293427FF4EFAE062205F11E0103
:1036600004F11F001AF0D5FBB0FA80F35B09002BC0
:103670007FF422AEDFE6B9F81200B9F81410A28A7E
:10368000B283F38230837183052209F11C0106F1B4
:103690001E001AF0CEFB99F8222096F8233062F330
:1036A000040386F8233014F071FD96F8233060F39C
:1036B000471386F82330304615F030FC15F078FCBF
:1036C000002861D15A48214615F042FB237943F086
:1036D0000102DB07227149D40EF01AFF092381464B
:1036E00003714FF6FF7324222D7FC38031461C30B7
:1036F0001AF09FFB99F81C30C9F80840C5F3401533
:1037000065F3451389F81C3015F0D8FD0021C9F880
:103710001000084615F012FC002F08BF4FF0FF08FC
:1037200089F81A80E27D0AF5DB6AAAEB000012F044
:103730000102C9F8140017D0BBF1000B18BF4FF0FD
:10374000010B99F819306BF3000389F819300EF06A
:10375000DFFE4946C9F80C00D9F800000EF0F0FE73
:10376000BDE8F84F0EF0FCBE9346EAE7314A324915
:10377000324840F23E3318F0CAFB404080F31188D3
:103780004FF0030002DFA7E72A4A2D492B484FF4E8
:10379000467318F0BCFB404080F311884FF00300E3
:1037A00002DF8FE7404613F01FFC00287FF443AE92
:1037B0002AE6A37D3278C3F38013304663F3861282
:1037C00000F8022B04F1190106221AF032FB12E76D
:1037D00095F8293003F0C003402B7FF472AE6B7F65
:1037E000012639E64946062204F119001AF011FBB8
:1037F000D0B1A37D5CE63146062204F119001AF02F
:1038000008FB00283FF461ADA37D05E6094A0C4999
:103810000A4840F2993318F07AFB404080F311884F
:103820004FF0030002DFF5E66B7F15E68D7D0100AA
:10383000B57F0100C029020060220200A41F02001F
:10384000302A02004368054A0BB9136070471068BC
:10385000990AB0EB932F18BF11607047501D0020DC
:1038600007B5D0E901130093036803488A0A18F0EA
:103870004EFB03B05DF804FB032E02002DE9FF416F
:10388000104E114FDFF8488005460C46002356F8CD
:103890002320AA420BD162680293A3680193236894
:1038A00000933968930A404618F031FB0423013332
:1038B000032BECDD054B012200201A7004B0BDE89B
:1038C000F08100BFCC1C0020C81C0020280700206D
:1038D000422E02002DE9F04188B005461C2200214D
:1038E00001A81AF0D1FA114E114FDFF84C800024D4
:1038F00056F82430AB420FD1384618F008FB284662
:103900001AF05BFE0B4A002346F82430C8F800305A
:103910001368013B136004240134032CE8DD01A982
:10392000284605F007FA08B0BDE8F081CC1C00205D
:10393000982E02004C1D0020C81C00202DE9F043E9
:103940000378023B012B89B080460F4603D9012042
:1039500009B0BDE8F083447814F00104F7D1DFF832
:10396000A49098F801309C42F1DAD8F804100222B1
:1039700021440DEB02001AF05CFA04AE0023BDF8FE
:1039800002208DF804308DF81030314641F60D03D9
:1039900001A8ADF80620ADF812301AF019FB054663
:1039A00020B1484618F0B3FA0234DAE7144CDFF8D5
:1039B00058802068616802AB03C3083458F825308A
:1039C00073B995B904F0A8FB50B994E80F0086E8E4
:1039D0000F00434602AA3146384605F0D7F90425C0
:1039E0000135032DEADD0020B2E704F095FB002845
:1039F000F6D194E80F0086E80F0008EB8503E9E7AD
:103A000000180200AC2E0200CC1C002070B5037818
:103A10008AB004460E4607AD032B20D8DFE803F03A
:103A200002191B1D114928461AF0C3F96378049343
:103A3000A3780393E3780293237901936379009346
:103A40000B4AA37905951E21304618F06DFA0AB08D
:103A500070BD0849E7E70849E5E70849E3E7084A90
:103A60000A21284618F060FAE0E700BFB82E0200ED
:103A7000DA2E0200BF2E0200C62E0200D02E020057
:103A80007E4B0200F0B591B004461C220E4601A800
:103A900000211AF0F9F901A9204605F04BF9054675
:103AA00098B920461AF08CFD08A9FFF7AFFF76B150
:103AB0000A4F042657F8043BA34204D120461AF0CB
:103AC0007CFD47F8045C013EF4D111B0F0BDBDF8B7
:103AD0001810034818F01BFAF7E700BFCC1C0020B1
:103AE000FD2E020070B588B01646694605461C4694
:103AF000FFF78CFF012E04D803492A46204603F025
:103B000019FF08B070BD00BF3D3900007FB50F4BF5
:103B10001A680F4B1B689A42BEBF0E4B00221A70E8
:103B20000021142201A81AF0AFF901238DF8043006
:103B300009490A4B039301A804F096FA10B9084802
:103B400018F0E5F907B05DF804FB00BF4C1D00203C
:103B5000340100202A720020E53A000060003000A5
:103B6000202F0200F8B5214804F078FD002004F071
:103B7000E7F9002838D11E4C1E49C4E90000C4E909
:103B800002001D4800F098F81A491C4800F094F80B
:103B900018491B4800F090F816491A4800F08CF8B4
:103BA00010BB194B01221A704FF47A7543F6972611
:103BB000E3680BB9FFF7AAFF1DF0DDFA0B46A0FB87
:103BC000050105FB0311C70B47EA41471DF0D3FA76
:103BD0000B46A0FB050105FB0311C30B43EA414360
:103BE000DB1BB342F2D9E3E7F8BD00BF18010020A8
:103BF000CC1C0020C8180200DC1C0020F81C00208F
:103C0000141D0020301D00202807002038B5CD6885
:103C10001C4601F009F9094B094A0A490A48D21A17
:103C2000D208920142F0040218F03EFC074B1B68D8
:103C30005B680BB128469847204638BDAC16020099
:103C4000641702007A2F0200452F0200541D002045
:103C50000C2B2DE9FF4128BF0C231E46114B1B687E
:103C60009B6807460D4690460BB1C86898470E4AB8
:103C70000E4C0F490F48A41AE408A40144F00402B2
:103C800018F012FCEB680193BDF8283000930296FF
:103C900033464246294638461BF059FE04B0BDE87B
:103CA000F08100BF541D0020AC1602006417020012
:103CB000892F0200582F020020B119B1034B0020B8
:103CC000196070476FF01500704700BF541D002049
:103CD0002DE9F04F87B00F461946109B9DF844B070
:103CE0009DF848A01F4C06461425104698464FEAFA
:103CF000E37950EA010319D1142D139C14BF013547
:103D000030232C4408BF8DF81430152C1BD0153CE3
:103D1000002C1ADC1DF8050039460135B047152D79
:103D2000F8D1002C19DC07B0BDE8F08F42464B46B5
:103D3000FCF79CFDA25C0DF8052084460B4660460E
:103D40001946013DD5E70024E4E7BBF1000FE1D0BF
:103D500039465046B047013CDAE739465046B0474D
:103D6000013CDEE7972F02000B6801330B60014B2B
:103D70001B68184740010020014B1860704700BFC6
:103D8000400100202DE9F04F002687B005468B4604
:103D90001C4602F1FF394FF0FF383746002307E099
:103DA0006BB9252800F0FC8059460493A847049B72
:103DB00019F8010F0028F3D107B0BDE8F08F7A2879
:103DC0000AD8622810D8302852D045D8252800F0CB
:103DD000E5802D2800F0EA8059462520A84799F86B
:103DE00000005946A847D9E7A0F16302172AF3D883
:103DF00001A151F822F000BF953F0000B93E00003C
:103E0000D93D0000D93D0000D93D00009B3E000097
:103E1000B93E0000D93D0000D93D00009B3E0000A6
:103E2000D93D0000D93D0000D93D00001D3F0000F4
:103E3000D93D0000D93D00005F3F0000D93D0000A2
:103E4000B93E0000D93D0000D93D0000613E0000B0
:103E5000D93D00009B3E0000392815D95828BBD118
:103E600099F80030702B63D154F8042B00236AE0DA
:103E7000B8F1000F0BDA002F00F09A80A0F13008A3
:103E8000002F08BF022793E7B8F1000FF6DB0A22E4
:103E900002FB0808A8F13008F2E7682803D1682E71
:103EA00006D1482684E76C2802D16C2E00F082806F
:103EB000002E91D106467BE77A2E03D154F8042BCD
:103EC000D31708E06C2EF9D04C2EF7D1073424F02C
:103ED0000704F4E8022375280FD0002A73F10001CB
:103EE0000BDA59462D20CDE90423A847DDE9042348
:103EF000524263EB430308F1FF38F91E18BF01215A
:103F0000012F0CBF30202020CDE9020801910A21A9
:103F1000009128465946FFF7DBFE3FE7594630201F
:103F2000A84759467820A8474FF00808012797E787
:103F30006C2E99D04C2E97D1E31D23F007031C461D
:103F40005B6854F8082BF91E18BF0121012F0CBF24
:103F5000302020200191CDE902081021D8E7A246A7
:103F60005AF8043B1C46214614F8010B40B9032FB4
:103F700022D1CC1AA8EB0404002C06DC54460DE731
:103F800059460493A847049BEDE759462020A847CB
:103F9000013CF1E754F8040B594623E7594621E761
:103FA0001E461F464FF0FF38012301E70327FFE6B7
:103FB0000127FDE64C26FBE654460346F8E600BF23
:103FC00007B50B46002102460191034801A9FFF7FE
:103FD000D9FE03B05DF804FB693D000030B585B043
:103FE000CDE90101044600250548039501A9FFF725
:103FF000C9FEDDE902309842B8BF255405B030BD96
:10400000E9BE010030B51049104889B000221DF00A
:10401000DDF80F4D0F4900220023CDE906230024CF
:104020000E23CDE90334CDE901440B4B00944FF44A
:104030004072284617F00CFC084928461CF0CFFFB8
:10404000204609B030BD00BF61400000100A0020CA
:10405000480A0020F07E002079440000A82F0200CA
:10406000014817F067BB00BF5408002008B500F0F6
:1040700065FA094818F0C8F90423282207490848B6
:104080001CF072FD074B084A1A604FF40040BDE86F
:10409000084000F097BC00BF701D002040BD00200C
:1040A000781D00204401002047C40100F8B50F4BE3
:1040B000BFF35B8F002553E8007F43E80052002ADE
:1040C000F9D1BFF35B8F0A4C0A4E361B3611B5424D
:1040D00000DBF8BD63685B792BB12368DB6813B143
:1040E00039462046984701351034F0E7681D002016
:1040F000DC170200FC170200064BBFF35B8F53E88E
:10410000002F013243E800210029F8D1BFF35B8F73
:10411000704700BF681D0020044A054B9B1AB1EB95
:10412000D30F34BF52F8310000207047AC160200A4
:10413000DC170200094B4268C31A1B11013310B58A
:1041400013714368064C196001225A71227812B922
:10415000044817F0EFFA0123237010BDDC170200AA
:104160002B7200205408002070B5114BBFF35B8FF9
:1041700053E8005F6A1C43E800210029F8D1BFF32F
:104180005B8F2DB90B4C0C4E361B3611B54200DB44
:1041900070BD237B43B123685B6903B19847042258
:1041A00000212046FFF7C6FF01351034EEE700BFBF
:1041B0006C1D0020DC170200FC170200164B984211
:1041C00037B5044602D3154B984220D31448002239
:1041D000002301A916F0FAFD0546D8B90122019B7A
:1041E000BFF35B8F53E8001F43E800200028F9D19C
:1041F000BFF35B8F019821461F22043019F0E3FDC5
:10420000019C7E2384F8233084F824500434204613
:1042100003B030BD034CFAE770140200544E0200A4
:10422000781D0020B02F020048B1054B984205D3FD
:10423000A03398422CBF0020012070470020704717
:1042400040BD00202DE9F04F4C4B1B7885B0044653
:1042500003B960B34FF02003EFF3118683F31188A5
:10426000BFF36F8F464818F0DFF8054686F31188D4
:10427000BFF36F8F78B1BFF35B8F424B53E8002FD2
:10428000013A43E800210029F8D1BFF35B8F94B1D4
:10429000284618F0E0F924B93B4B1B680BB1FFF737
:1042A00005FF374818F0BEF8041E18BF0124204649
:1042B00005B0BDE8F08F354B1B78CBB92B7ADB0707
:1042C00016D418F0DBF98046284618F0A2F901460A
:1042D000404618F0BCF82E4F2E4BDFF8D4B0DB1B55
:1042E000DB0803932C4BDB1B06464FEAD30A36B997
:1042F0002A4E2B4FBF1B3F114FF000083AE0B6FA91
:1043000086F1C1F11F094946284618F085F9254B69
:104310009842014602D3244B98421AD30846FFF72D
:1043200083FF0246A8B9214B994212D06B890398AA
:104330009909B0EB931F4FEA8A1343F0010388BF3A
:1043400057F83120ADF8003049464346584618F03A
:10435000D8F8012101FA09F126EA0106C7E77368D6
:104360005B7923B1336829461B683046984708F1CA
:1043700001081036B845F2DB8AE700BF2B72002037
:10438000701D0020641D0020681D00202C7200207C
:10439000AC160200DC170200A4170200DC170200B2
:1043A000FC17020070140200544E0200B02F0200ED
:1043B000CA2F0200294B73B51B68418104469847F8
:1043C000274DE060BFF35B8F55E8003F013345E8C0
:1043D0000032002AF8D1BFF35B8F4FF02003EFF3D8
:1043E000118683F31188BFF36F8F1E48214618F0A2
:1043F0000FF886F31188BFF36F8F1B4B1B7883B1C7
:104400004FF02003EFF3118483F31188BFF36F8F14
:104410000020FFF717FF84F31188BFF36F8F02B0FE
:1044200070BD124A2B681268002AF8D0012B0AD1FD
:1044300000220023CDE900230D484FF40042002361
:1044400017F06AFCEBE70A2BE9D109481CF0CAFE19
:10445000084802B0BDE8704017F06CB94401002074
:10446000641D0020701D00202C720020941D00206F
:10447000100A00205408002010B5FFF775FE17F051
:1044800053F90C4B186030B10B4B1B68092B02DD44
:104490000A4817F04FF9094C0020FFF7D3FE002817
:1044A000FAD14FF0FF324FF0FF33204617F068F992
:1044B000F2E700BF941D0020641D00205408002076
:1044C000F8B50E4F3D7875B90D4C0E4EFFF74CFE0A
:1044D000361B3611B54207DB0020FFF7B3FE00287C
:1044E000FAD101233B70F8BD63685B791BB1236887
:1044F00020461B69984701351034EBE72C720020E9
:10450000DC170200FC17020007B504380190BFF366
:104510005B8F50E8003F5A1E40E800210029F8D187
:10452000BFF35B8F012B03D1034801A916F080FC78
:1045300003B05DF804FB00BF781D00202023024972
:1045400002481A461CF010BBE0BD0020981D002058
:1045500037B50023094D01930120FFF773FE044690
:10456000FFF7CAFD0022002301A9284616F02EFC01
:1045700008B1002CF0D1019803B030BD981D002087
:1045800007B50023019307480022002301A916F074
:104590001DFC10B1FFF7DCFF0190019803B05DF83E
:1045A00004FB00BF981D0020F0B5037A457A85B062
:1045B0002D090190D8071CD4DDB1002426460198AE
:1045C000314618F029F80746FFF72EFE70B134B9CE
:1045D000019B2946186917F03AFF044648B124FAAE
:1045E00006F3D90702D53846FFF78EFF0136AE42F3
:1045F000E5D3019B1A7A920704D55B69084C0393B3
:10460000039B2BB9064801A916F012FC05B0F0BDBA
:104610001D6803A9204616F00BFC0395F0E700BFC8
:10462000981D00200EB403B503AB014653F8042BCC
:1046300004480193FFF7A6FB002002B05DF804EBED
:1046400003B0704725CA01002DE9F04F85B011F085
:10465000020490469DF8387006461A4601F001099A
:1046600001F0080507D011F0440F37D13249FFF7A8
:10467000D9FF01460C46B9F1000F0AD02F4B304943
:1046800053F827202F4B3046002A08BF1A46FFF761
:10469000C9FF3DB12C4B2D4953F827203046FFF779
:1046A000C1FF0546B8F1000F43D0012303FA07F715
:1046B000274B17F0100F274F18BF1F46BDF84010AB
:1046C0009DF83C00FFF728FD394602463046FFF7CB
:1046D000A9FF2844204405B0BDE8F08F1E4B19689F
:1046E0000029C7D01D4B4FF4616E1B68B2FBF3F37A
:1046F0004FF47A7CB3FBF1F4B4FBFEF20EFB124EE6
:1047000001FB14340CFB04F44FF03C0AB4FBF1FB46
:1047100001FB1B440CFB04F4BEFBFAF3B4FBF1F108
:10472000CDE901B10AFB13E100910D49FFF77AFFD2
:104730009FE7084FC2E700BF1B30020010190200BC
:10474000543D02000D3002002419020040300200E6
:104750001730020012300200B41D0020B81D0020E6
:104760002430020038B50C46E107054603D5084A57
:104770000849FFF757FFE20608D4A30628464CBFB6
:1047800005490649BDE83840FFF74CBF38BD00BFBA
:104790000D300200543D0200473002004630020056
:1047A0002DE9F0471D46089B1746DA0604460E46DB
:1047B00005D499064CBF2A492A49FFF733FFDFF891
:1047C000AC904FF00008A8452ADBDFF8A480DFF8A2
:1047D000A490DFF898A00025BD422FD2725D494613
:1047E0002046FFF71FFF0135102D20D11E49DFF8AD
:1047F0007C80DFF884902046FFF714FF0025AF424D
:1048000028D9725DA2F120035F2B28BF2E224946D2
:104810002046FFF707FF0135102D14D1BDE8F087C2
:1048200049462046FFF7FEFE08F10108CBE76A077C
:10483000D2D151462046FFF7F5FECDE7414620464E
:10484000FFF7F0FECFE76B07D9D141462046FFF7CF
:10485000E9FED4E741462046FFF7E4FEDBE700BF70
:10486000473002004630020053300200513002004F
:104870004F30020049300200553002002DE9F04768
:104880008B7A13F0070817468AB00A7A05460E4657
:1048900020D04989C3F3C2038909D243CDE90083FB
:1048A0000291F36802F001023946FFF7CDFE81461E
:1048B000347AE44314F001040ED02946304617F050
:1048C00047FFB8F1000F2BD0424639462846FFF784
:1048D00049FF25E0C146EBE7B8F1000F26D1274696
:1048E000EB68069306AA3B46A968304617F01CFF02
:1048F000069A6B681A603AB1AB68134413F8014C1E
:10490000A4F10A035C425C41284618F07EF8069B3D
:104910001F44002BE4D11CB113492846FFF782FE47
:10492000284618F072F80AB0BDE8F087304617F054
:10493000A5FE0E4902462846FFF774FE4FF0100A06
:1049400005AA234606A93046CDF814A017F0ECFEC0
:10495000059A002AB8D04B46009706A92846FFF7CB
:104960001FFF059B1C44EBE758300200543D02003A
:1049700073B5D0E900435D680F4A42F20F738B4272
:1049800028BF0B466846052117F0CEFA2B4606468F
:104990000A4920460B2217F0CEFE2B4632466946C6
:1049A000204617F0C8FE06492B461B22204617F06A
:1049B000C2FE02B070BD00BFC948020096300200BE
:1049C0007A300200084A10B50123084C1360002118
:1049D000A04204D801B11360054B186010BD400817
:1049E0005B000121F4E700BFB81D002040420F002A
:1049F000B41D0020014818F008B800BF501902008B
:104A00000148FFF7B5BF00BF5019020008B50348C1
:104A100016F022F8024B586008BD00BFA230020019
:104A2000C41D002010B508460C4617F0E5FD0548EA
:104A300021460F22FFF722FF2046BDE8104017F065
:104A40000ABE00BF50190200014B01221A707047C4
:104A50003E720020024B034801221A7017F0D5BFA6
:104A60003F720020781902000148FFF781BF00BFA4
:104A70007819020010B508460C4617F0BDFD054830
:104A800021460F22FFF7FAFE2046BDE8104017F03E
:104A9000E2BD00BF78190200054B1B781BB141F243
:104AA00088301CF09ABAA420002116F01DBE00BF69
:104AB0003F7200202DE9F84FDFF89090DFF890B0BA
:104AC00007460E460424CA4699F8003033B94FF021
:104AD000FF324FF0FF33584616F0EAF932463946B6
:104AE000002000F0EBF99AF80030804613B95846E0
:104AF00016F056FA144DB8F1000F18D001232B70A0
:104B00009AF8003033B93046BDE8F88F5CB92C70A4
:104B10004FF0FF34002000F01DFA0028F3D02B786E
:104B2000002BF3D1EFE7013CFFF7B6FFF2E72B785C
:104B300013B1013C04D12C702B78002BC4D1E2E7D7
:104B4000FFF7AAFFF8E700BF3E7200203F72002087
:104B5000280800200A4B70B5C6B21B6804463046D0
:104B6000984701280AD00A2C064D03D128680D2148
:104B700017F083FF2868314617F07FFF204670BD8D
:104B800048010020E41D002010B50748074C15F02F
:104B900063FF074B1860204601F028F82046FFF716
:104BA000EBF8002010BD00BFA2300200554B000002
:104BB000E41D0020F8B5124EF3680C2404FB003409
:104BC0000123054663724FF02003EFF3118183F355
:104BD0001188BFF36F8F23682BB160681A68226059
:104BE000834208BF626081F31188BFF36F8F03B9FE
:104BF000F8BDD3E9017229463046B847E3E700BF64
:104C00003C070020154B07B51A6882B14FF080426F
:104C1000D2F80423D1070AD500221A601B6800933A
:104C2000009B0F4BDB68587A08B9FFF7C3FF0D4BA9
:104C30001A6882B14FF08042D2F8042392070AD555
:104C400000221A601B680193019B012003B05DF8EC
:104C500004EBFFF7AFBF03B05DF804FB00010040B9
:104C60003C07002004010040821C084B22F07F42D8
:104C7000C3F84025D3F80425904200D17047D3F8FB
:104C80000405821C22F07F42F2E700BF00100140C1
:104C9000044B002282B01A601B680193019B02B092
:104CA000704700BF4011014008B5FFF7F1FF074B07
:104CB000074AD3F840051368C01A20F07F40034428
:104CC0001360BDE8084016F079BF00BF0010014036
:104CD000001E002038B5144815F0BEFE00B38368EE
:104CE000124D1B68012100249847C5F80845FFF7BD
:104CF000CFFF0F4B4FF40032C3F880214FF48033C5
:104D0000C5F8043322460121112000F03FFB112099
:104D100000F00AFB074A0123136020462B6038BDD0
:104D20004FF0FF30FBE700BFD03002000010014021
:104D300000E100E00810014070B52A4B2A4C1968C8
:104D4000D4F80425294D521AB0F1FF3F08BF284678
:104D500022F07F43120234D4013820EAE070A842E6
:104D6000A8BF284601334FF480361844C4F80863BE
:104D7000A84294BF0D184D19D4F80405D4F8401575
:104D8000FFF786FF091A21F07F4120F07F430129B8
:104D9000C4F84035C4F8446304D10F201CF01DF959
:104DA000FFF776FF124B4FF40032C3F88021D4F89E
:104DB00004052B1A23F07F43012B04D1FFF754FF86
:104DC0000BE00020CEE725F07F43C4F84035D4F84F
:104DD00004052D1A023D2B02F0D44FF48033C4F8A1
:104DE000043370BD001E002000100140FFFF7F0053
:104DF00000E100E04FF02002EFF3118382F311880D
:104E0000BFF36F8F064AD2F80405064A1268801A6B
:104E100020F07F4083F31188BFF36F8F704700BF8E
:104E200000100140001E00204FF02003EFF311821C
:104E300083F31188BFF36F8F0649074B0868D3F8D7
:104E4000043582F31188BFF36F8F1B1A23F07F4361
:104E500018447047001E00200010014010B5114C8E
:104E6000114AA2610323C4E90433104BE3612266B3
:104E70004FF480630E4A0F492362626600231022BA
:104E8000E01DA3626362E3622367E3666367A26671
:104E900018F08FFF0849204618F08BFF2023A371DC
:104EA00010BD00BF041E0020FA3002005072002026
:104EB0004072002003310200073102002DE9F84F53
:104EC000234F4FF0180B14460BFB00720646936AF3
:104ED000556AAB42884634D8D2F820A0AAEB05091F
:104EE00009F1FF32944211D84FF0180906FB0993DB
:104EF0003B44224658684146284418F09AFF09FB73
:104F000006762C4474620120BDE8F88F13449C425D
:104F10001BD800FB0BBBBB444A46DBF804002C4407
:104F2000284418F086FFB4EB0A0406D0DBF804002E
:104F3000224608EB090118F07CFF182000FB0676DA
:104F4000E0E7013B5B1BA342CED20020DCE700BFC1
:104F5000041E0020034B182202FB00339A6A586A91
:104F6000801A7047041E0020014B1868704700BF6C
:104F70004C010020F0B5082289B00C46064618F016
:104F800004F8CB6A03930B6B04934B6B05938B6B09
:104F90000693CB6B0793002708236A466946684649
:104FA000CDE90177009717F0F2FE082305466A461F
:104FB0003146304617F0EBFE236B0393636B04938B
:104FC000A36B0593E36B0544CDE906376A460823D6
:104FD0006946684617F0DBFE3146054408236A46F9
:104FE000304617F0D4FE236A0093636A0193A36AE4
:104FF0000293A36B0693E36B0793054408236A4669
:105000003046CDE90477039717F0C1FE636A009339
:10501000A36AA26B0193E36A02930492636BE26B4F
:105020000393CDE90523236A0793054408236A46C1
:10503000304617F0ACFEE36A0093236B0193636B79
:105040000293236A0693A36A0793054408236A46DA
:105050003046CDE90477039717F0CDFF236B00931B
:10506000636B0193A36B0293E36B0393636A0693F1
:10507000E36A07932D1A08236A463046CDE9047780
:1050800017F0B9FF636B0093A36B0193E36B02937B
:10509000236A0393636A0493A36ACDE90537236BFC
:1050A00007932D1A08236A46304617F0A4FFA36B16
:1050B0000093E36BCDE90137636A0393A36A04931A
:1050C000E36ACDE90537636B07932D1A08236A4617
:1050D000304617F090FF2D1A10D40D4C35B9082228
:1050E0003146204617F05DFF01280FD008232246E5
:1050F0003146304617F07FFF2D1AEFE7044A0823A8
:105100003146304617F043FE2D18F8D409B0F0BDF3
:10511000B0190200F0B5264E07460C460FCE8DB0F2
:1051200001AD0FC50FCE0FC596E8070085E8070053
:105130003846002F38D0002C38D0381F2146024680
:1051400010344B780D781B0443EA0563CD782B436C
:105150008D78043143EA05238C4242F8043FF0D1B4
:10516000144C04218A07036916D1C3F30742A55CD6
:105170001A0EA25C42EA0562C3F30725DBB2655D45
:10518000E35C42EA054242EA03220CAD21F003034C
:105190002B4453F82C3C534050F8042F013153401A
:1051A0002C290361DED101200DB0F0BD2046FBE7C4
:1051B000181802000E3102002DE9F043154689B09F
:1051C0000646002858D0002959D0002A59D010236B
:1051D0000A466846194617F016FD294668462A4CC5
:1051E00018F01BFC05F11007A146A035E8466A46F9
:1051F00010231178013B615C02F8011BF9D168466C
:1052000018F050FC694604A818F085FC01A905A80F
:1052100018F081FC02A906A818F07DFC03A907A8D4
:1052200018F079FC102319460DEB0302684617F0BD
:10523000EAFC39466846103718F0EFFBAF42D5D18B
:10524000102498F80030013C19F8033008F8013BAD
:10525000F7D1684618F026FC2946684618F0DDFBB1
:10526000102319466A46304617F0CDFC68461022D6
:10527000214617F0D5FC012009B0BDE8F0830846AF
:10528000FAE71046F8E700BF0E310200094A0A4962
:10529000936809689967094958674B6843F08053D8
:1052A0004B60002383F31188BFF36F8F9368986F6F
:1052B000704700BFA4710020E02D020000ED00E067
:1052C0000F498A684FF038001044EFF3098C80E8EA
:1052D000F01F202080F31188BFF36F8F094F4FF02C
:1052E00000664A6A8A603E60506F0023536780F30D
:1052F000118802F1380090E8F01F8CF3098870479C
:10530000A471002004ED00E01EF0040F0CBFEFF3C9
:105310000880EFF30980816911F8021C0229FFD08F
:1053200001B518F03BFD01BD43B2002B08DB0122A3
:1053300000F01F0002FA00F05B09024A42F8230065
:10534000704700BF00E100E043B2002B0DDB0122FB
:105350005B0900F01F0002FA00F02033034A42F814
:105360002300BFF34F8FBFF36F8F704700E100E062
:10537000054B420900F01F0053F82220012303FAD5
:1053800000F01040704700BF00E100E043B2002B86
:10539000A8BF03F1604301F10101B8BF064B4FEA1A
:1053A0004111ACBF03F5614300F00F00C9B2B4BFB7
:1053B000195483F80013704714ED00E008B572B675
:1053C000044B186A18B100221A621BF046FB62B641
:1053D00008BD00BFA47100202DE9F0410E4605462E
:1053E0008C183046AA211746984618F04DFD0D4BF3
:1053F000A4F1200222F0070223F00103C5E91A6795
:105400009361069B5360079B9360089BD3604FF0AA
:105410008073D3610023C2F80080AA656B67BDE882
:10542000F08100BF43BF0100F8B506460C461746A1
:105430001D4600F013FB094B3C4424F007049E601A
:10544000284684F30988002163B681F31188BFF3ED
:105450006F8F0022002316F074FD00BFA47100209E
:10546000014910220A60704710ED00E072B640401A
:1054700080F31188BFF36F8FBFF34F8F30BF62B6D9
:10548000BFF36F8F704700BF73B506460C4601B37C
:10549000134B144D1448ED1AED08AD0145F001050C
:1054A000ADF80050D1E90123096817F02AF8ADF8EA
:1054B0000050D4E90423E1680C4817F022F8E169B0
:1054C0000B482A4616F0F0FFA1690A482A4616F052
:1054D000EBFF2146304602B0BDE8704015F0F8BA47
:1054E000AC160200BC1702000E3202003D32020070
:1054F0006C3202007B32020030BFFFF7FDBF00BFFD
:105500000E4A08B50E4B22F07F029A60BFF34F8F10
:10551000BFF36F8FD3F8882022F47002C3F888207D
:10552000EFF3148323F0040383F3148815F04CFB8A
:1055300015F054FB00F060FA15F08EFB000000003F
:1055400000ED00E001B572B60B4A106A00281EBFDC
:10555000002111621BF081FA62B6EFF30580A0F121
:1055600010004FEAC0000549014409C99847BDE849
:105570000140034908470000A4710020F014020014
:10558000DD59000018F0A6FC202080F311880B489C
:105590004FF0AA014FF4006218F076FC07484FF470
:1055A0000061401880F30988EFF31480022108435A
:1055B00080F31488BFF36F8FFFF7A2FF40A5002090
:1055C000EFF30880EFF30981724601B500F032F97C
:1055D00001BD00BF70B5234B234C244D2448E41A71
:1055E000E408A40144F00106314616F050FFAA6A0F
:1055F000930103D51F48314616F049FFAB6ADD0120
:1056000004D51D4844F0010116F041FF174DAA6A68
:10561000100304D5194844F0010116F038FFAB6AB5
:10562000590304D5164844F0010116F030FF0F4D20
:10563000AA6A920304D5134844F0010116F027FF2B
:10564000AB6ADB0304D5104844F0010116F01FFFDC
:10565000064A936A6FEA03436FEA1343936200209A
:1056600070BD00BFAC160200BC17020000ED00E0E8
:10567000A9320200C1320200D4320200EE3202002E
:105680000C330200313302004B3302002DE9F041AC
:10569000274B284C284DE41AE408A40144F00108E3
:1056A00007460E462548414616F0F1FEAA6AD10685
:1056B00003D52348414616F0EAFEAB6A1A0704D523
:1056C000204844F0010116F0E2FE1B4DAB6A9B0737
:1056D00012D544F001081C48414616F0D8FE696B0B
:1056E000AB6A180608D51948424616F0DDFE1FB110
:1056F000AB6A23F08003AB620F4DAA6AD20704D5D0
:10570000134844F0010116F0C2FEAB6A9B0604D5B3
:10571000104844F0010116F0BAFE074B9A6A9A6AE3
:10572000002042F0FF029A623070BDE8F08100BFB5
:10573000AC160200BC17020000ED00E07633020058
:105740008C330200BF330200D2330200EA3302007E
:10575000003402001F3402002DE9F0412A4B2B4C8B
:105760002B4DE41AE408A40144F0010807460E4654
:105770002848414616F08BFEAA6AD10403D5264874
:10578000414616F084FEAB6A1A0504D5234844F05E
:10579000010116F07CFE1E4DAB6A9B0512D544F04C
:1057A00001081F48414616F072FEA96BAB6A180447
:1057B00008D51C48424616F077FE1FB1AB6A23F4A9
:1057C0000043AB62124DAB6A590504D5164844F04C
:1057D000010116F05CFEAB6ADA050DD5134844F002
:1057E000010116F054FE0A4A936A002043F47F43F5
:1057F00093623070BDE8F081AB6A9B04F3D50C482E
:1058000044F00101EDE700BFAC160200BC17020036
:1058100000ED00E04E34020064340200BF330200A9
:10582000753402008E340200A3340200BE3402003C
:105830001F3402002DE9F041564B5E688AB00F46D6
:10584000C6F30804002585F31188BFF36F8F02F0BB
:105850007F43B3F17F4F0DD102F00C03082B0BD126
:105860004D494E4B4E48C91AC908890141F0010102
:1058700016F00DFE2F4603E0120701D4074601255E
:1058800000238DF80730E31E092B6AD8DFE803F008
:1058900005585C3C696969696960404B3E4E414806
:1058A000F61AF608B60146F00106314616F0EFFD8D
:1058B000384BDC6A4FF0000814F002048DF80780C2
:1058C00005D03948314616F0E2FD00241FE0DB6ABE
:1058D0005B001CD53548314616F0D9FD344B1B789A
:1058E0002BB10DF107010120FFF7D0FE0EE0314B87
:1058F0001B782BB10DF107010120FFF72DFF05E00B
:105900002D4B1B889BB213B1FFF764FE04469DF834
:10591000073093B92022394602A818F08AFA099B69
:105920009DB3C3F3080222B96FEA53236FEA4323FE
:10593000099302A92046FFF7A7FD0AB0BDE8F08150
:105940000DF107010020CFE70DF107010020D4E79A
:105950001149124B1948C91AC908890141F00101BE
:10596000B1E70E4A0C4B164816499B1ADB0816F491
:10597000F87F4FEA831318BF014643F00103124832
:10598000A4F1100216F0A4FD9FE723F4FF7323F0A7
:105990000103CDE700ED00E0BC170200AC160200E9
:1059A000D6340200013502001835020039350200F4
:1059B00028ED00E029ED00E02AED00E05835020076
:1059C000A33502008E350200BC350200024A53693D
:1059D00043F010035361704700ED00E0044B9968F9
:1059E000586A884203D003494FF080520A607047DA
:1059F000A471002004ED00E0044800232021C21817
:105A00000133302B82F80013F9D1704700E100E038
:105A100038B504464FF02003EFF3118583F3118866
:105A2000BFF36F8F15F0E4FC0A4B9B68A3420BD1C8
:105A3000094B5A68C2F3080212B92846FFF726FC40
:105A40005A6842F080525A602846BDE838401BF040
:105A5000BEB900BFA471002000ED00E01FB5084BE7
:105A60000193084B0293084B039301AB0093074A41
:105A7000074B0121684600F0AFF805B05DF804FB64
:105A8000000000200000000000000B0600000020C5
:105A900000000420DFF8BCC0F8B506460F461046EB
:105AA0000021B9421BDA56F821E0DEF80440002C50
:105AB00046D0ABB1651E2C4205D11F2C03D9DEF8B0
:105AC000002015420CD01F4A1F4B2048D21AD20882
:105AD000920142F0010216F0E7FC6FF01500F8BDEC
